:020000040800F2
:1000000068040020010100087F0D00084D0C000865
:100010007D0D00088D010008630F0008000000003E
:10002000000000000000000000000000830D000838
:100030008F01000800000000810D0008850D0008F8
:100040001B0100081B0100081B0100081B01000820
:100050001B0100081B0100081B0100081B01000810
:100060001B0100081B0100081B0100081B01000800
:100070001B0100081B0100081B0100081B010008F0
:100080001B0100081B0100081B0100081B010008E0
:100090001B0100081B0100081B010008B701000834
:1000A0001B0100081B0100081B0100081B010008C0
:1000B0001B0100081B0100081B0100081B010008B0
:1000C0001B0100081B0100081B0100081B010008A0
:1000D0001B0100081B0100081B0100081B01000890
:1000E000910100081B0100081B010008DFF80CD07B
:1000F00000F02AF800480047ED0F000868040020CF
:100100000648804706480047FEE7FEE7FEE7FEE7B1
:10011000FEE7FEE7FEE7FEE7FEE7FEE7E70D000885
:10012000ED000008D2B201E000F8012B491EFBD21D
:1001300070470022F6E710B513460A4604461946F2
:10014000FFF7F0FF204610BD064C074D06E0E068C3
:1001500040F0010394E8070098471034AC42F6D30E
:10016000FFF7C8FF3C1000085C100008064B012890
:1001700006D0002806D101228021184600F090B94F
:100180000022F9E770470000000C0140FEE77047CD
:1001900010B54FF4805000F087F84FF4005000F095
:1001A00083F84FF4804000F07FF8BDE810404FF432
:1001B000004000F079B810B5202000F075F8BDE8D7
:1001C00010404FF4807000F06FB872B6FEE7000088
:1001D000264910B50B68264A14681B1BC82B44D34C
:1001E0000968244C1160B0F5005F17D0B0F5804F5E
:1001F0001CD0202822D0B0F5004F27D0B0F5805F6A
:100200002CD0B0F5807F30D10020FFF7AFFF062063
:10021000207019A0BDE8104000F0A4BE01210846DE
:1002200000F016FD0120207015A0F3E70021012049
:1002300000F00EFD0220207013A0EBE70121022048
:1002400000F006FD0320207011A0E3E7002102204A
:1002500000F0FEFC042020700FA0DBE70120FFF778
:1002600085FF052020700EA0D4E710BD10000020EF
:1002700004000020000000206573630A0D000000E8
:1002800075700A0D00000000646F776E0A0D0000A3
:100290006C6566740A0D000072696768740A0D0067
:1002A0006F6B0A0D00000000044910B50A68024295
:1002B00002D00860FFF78CFF10BD0000140401405D
:1002C0002DE9F84FDFF8B8910024A9F1040B23467B
:1002D0000F2709F1040AABF1040EC9E00125A5407E
:1002E0002A40AA427DD1674ED1F804C0ACEB060883
:1002F000B44532D014DCBCF1030F3AD009DCBCF1B8
:10030000000F2AD0BCF1010F1CD0BCF1020F31D17B
:100310001DE0BCF1110F17D0BCF1120F2AD119E06A
:10032000B8F5881F19D006DCB8F5803F15D0B8F5B0
:10033000801F1FD111E0B8F5001F0ED0B8F5041FC3
:1003400018D10AE0CB6815E0CB681B1D12E0CB6822
:1003500008330FE0CB680C330CE08B682BB1012B1A
:100360004FF0080303D0456104E0042302E0056177
:1003700000E00023FF2A01D8064601E000F1040650
:100380004FEA840501D9A5F12005D6F8008007FAC7
:1003900005FC28EA0C0803FA05F548EA0508C6F842
:1003A00000804D68ED0062D5374DAE6946F001061C
:1003B000AE61AD6924F0030605F001050095334DEB
:1003C00006EB050CDCF80850A607360F07FA06F80E
:1003D00025EA0805DFF8B880404503D14FF0000852
:1003E00017E044E0DFF8AC80404502D14FF001084F
:1003F0000FE0DFF8A480404502D14FF0020808E08A
:10040000DFF89880404502D14FF0030801E04FF03B
:10041000040808FA06F848EA0508CCF808804D6890
:10042000D9F80060ED024D4601D5164300E0964331
:100430002E604D68DAF80060AD02554601D51643CE
:1004400000E096432E604D68DBF80060AD035D462A
:1004500001D5164300E096432E604D68DEF800603B
:10046000ED03754601D5164300E096432E60641CEB
:100470000D682A46E5407FF431AFBDE8F88F0000F3
:10048000080401400000111000100240000001406B
:1004900000080140000C0140001001400014014020
:1004A0000AB1016170470904FBE700000148806858
:1004B000704700000800002002488168027811445B
:1004C0008160704708000020074810B5016841F0BE
:1004D00010010160032000F06DF80F2000F006F815
:1004E00000F024F8002010BD0020024070B50D4D32
:1004F00004464FF47A712878B1FBF0F00A49096894
:10050000B1FBF0F000F0D4FA48B9102C07D2002269
:100510002146501E00F02EF800206C6070BD0120B6
:1005200070BD00000800002014000020094808B534
:10053000816941F001018161816901F0010100914E
:10054000C16941F08051C161C06900F080500090E4
:1005500008BD000000100240002809DB00F01F0267
:10056000012191404009800000F1E020C0F8001115
:1005700070470000F0B40E4B1B680C46C3F3022317
:10058000C3F10705042D00D90425191D072901D23F
:10059000002300E0DB1E012606FA05F1491E21407A
:1005A00099409E40761E16403143F0BC00F0E2BCFC
:1005B0000CED00E0064900F0070208684FF6FF0363
:1005C000184040EA0220034A1043086070470000C8
:1005D0000CED00E00000FA052DE9F0470F4605009C
:1005E00061D0434E306800F00700B84209D230684D
:1005F00020F0070038433060306800F00700B84250
:1006000051D128683B4C810712D5400703D560685B
:1006100040F4E06060602878000703D5606840F42B
:10062000605060606068A96820F0F0000843606076
:100630002878C00728D06868012810D021680228CF
:1006400010D0890700292EDA616821F003010143E7
:100650006160FFF72BFF804641F288390DE0216889
:100660008903EFE78901EDE7FFF720FFA0EB080121
:10067000494502D90320BDE8F0876068696800F049
:100680000C00B0EB810FEFD1306800F00700B842EA
:100690000BD9306820F0070038433060306800F034
:1006A0000700B84201D00120E5E72878400705D5CA
:1006B0006068E96820F4E06008436060287800071B
:1006C00006D56068296920F4605040EAC100606086
:1006D00000F038F86168084AC1F30311515CC84062
:1006E0000649086006480068FFF700FF0020C2E7DF
:1006F00000200240001002402210000814000020D8
:100700000C0000200448054900684968044AC1F308
:100710000221515CC84070471400002000100240C4
:10072000321000080448054900684968044AC1F3CA
:10073000C221515CC84070471400002000100240E4
:10074000321000080E4A51680E4801F00C03042BC9
:1007500011D0082B0FD10C48C1F38343C903C05CEF
:100760000AD55168084AC1F34041921E515C054ABE
:100770005043B0FBF1F07047044948437047000014
:100780000010024000127A001210000800093D001B
:100790002DE9F84F040070D02078C04DC00749D033
:1007A0006868C0F38100012807D06868C0F3810041
:1007B000022809D16868C00306D52868800339D5A6
:1007C00060680028E7D035E06068B0F5803F0BD066
:1007D00010B1B0F5A02F11D0286820F48030286027
:1007E000286820F4802002E0286840F480302860E7
:1007F000606890B1FFF75AFE06460AE0286840F4A8
:1008000080202860F0E700BFFFF750FE801B6428BF
:1008100073D828688003F7D50CE0FFF747FE06463B
:1008200005E000BFFFF742FE801B6428F0D828686F
:100830008003F7D420789A4E80074FF001094FF0DB
:10084000000839D5686810F00C0F07D06868C0F34D
:100850008100022809D16868C00306D4286880078F
:1008600014D52069012808D110E02069B0B1C6F87C
:100870000090FFF71BFE074605E00AE1FFF716FEB2
:10088000C01B0228C4D828688007F7D5286861698A
:1008900020F0F80040EAC10028600DE0C6F80080B2
:1008A000FFF704FE074604E0FFF700FEC01B022826
:1008B00023D828688007F7D4207800072CD57948FA
:1008C000A169D9B1C0F80090FFF7F0FD074604E038
:1008D000FFF7ECFDC01B02280FD8686A8007F7D528
:1008E00071484FF4FA510068B0FBF1F0009000BF7E
:1008F0000098411E0091FAD20EE080E0C0F800801E
:10090000FFF7D4FD074604E0FFF7D0FDC01B022827
:1009100075D8686A8007F7D42078400760D5E86901
:100920000027C00008D4E86940F08050E861E86919
:10093000012700F0805000905C480168C90513D47D
:100940000168834641F480710160FFF7AFFD824684
:1009500006E000BFFFF7AAFDA0EB0A0064284ED80E
:10096000DBF80000C005F5D5E06801280AD008B121
:10097000052813D0286A20F001002862286A20F098
:10098000040002E0286A40F001002862E06841F2B9
:10099000883B98B1FFF78AFD82460BE0286A40F059
:1009A00004002862EEE700BFFFF780FDA0EB0A011C
:1009B00059455AD8286A8007F6D50CE0FFF776FD2E
:1009C000824605E0FFF772FDA0EB0A0159454CD8BD
:1009D000286A8007F6D41FB1E86920F08050E861EA
:1009E000E06988B36968C1F38101022944D0022813
:1009F000C6F8608004D0FFF759FD044638E034E0C3
:100A0000FFF754FD074604E0FFF750FDC01B022826
:100A10002BD828688001F7D4206AB0F5803F05D133
:100A20006868A16820F4003008436860D4E90801D0
:100A30000843696821F4741108436860C6F860903F
:100A4000FFF734FD044606E025E000BFFFF72EFD6A
:100A5000001B022809D828688001F7D51BE000BFD9
:100A6000FFF724FD001B022802D90320BDE8F88F00
:100A700028688001F4D40EE00128F7D06868226A63
:100A800000F48031914204D1616A00F47010884210
:100A900001D00120EAE70020E8E700000010024052
:100AA00000004242800442421400002000700040D6
:100AB00010B5401EB0F1807F01D3012010BD4FF072
:100AC000E02460610F21601700F054FA0020A0615B
:100AD00007202061002010BD70B5040004D094F8F8
:100AE0004100002510B106E0012070BD84F840509F
:100AF000204600F023F8242084F841002068C168D3
:100B000021F40051C160204600F096F92068016987
:100B100021F4904101612068416921F02A0141617D
:100B20002068C16841F40051C1606564202084F8E8
:100B3000410084F842006563002070BD30B585B087
:100B4000002400940194029403940068144988429C
:100B500024D11448816941F480418161816901F4A3
:100B600080410491816941F00401816180690E4DE9
:100B700000F0040004904FF40070009002200190F7
:100B80000320039069462846FFF79AFB2815CDE914
:100B90000004694628460294FFF792FB05B030BD79
:100BA0000038014000100240000801402DE9F843E0
:100BB000044690F84100984616460D46202802D07B
:100BC0000220BDE8F88385B17EB100206064212059
:100BD00084F84100FFF76AFCA6848146E684A06899
:100BE0002027B0F5805F02D003E00120E9E720690B
:100BF00010B12E4600250EE000260CE08021204694
:100C000000F076F9A8B9C6B116F8010B2168486062
:100C1000E08C401EE084E08C4B464FF00002CDF8A3
:100C200000800028EAD14FF04001204600F060F932
:100C300040B184F841700320C3E735F8020BC0F3DC
:100C40000800E3E784F841700020BAE7FEE70000FF
:100C50000A4B012808D002280ED1C001012906D074
:100C6000002909D1012203E04FF40070F6E70022C9
:100C700001461846FFF714BC70470000000C014005
:100C80002DE9F04186B000252A480095019502958E
:100C90000395816941F020018161816901F02001A2
:100CA0000491816941F008018161816901F00801C5
:100CB0000491816941F0040181618069DFF87880E5
:100CC00000F004004FF4607704900122394640465A
:100CD000FFF7E6FB194E4FF22000CDE90006012494
:100CE000694602944046FFF7EBFA2002CDE9000680
:100CF000694602941248FFF7E3FA0220CDE9025058
:100D0000CDE9007469464046FFF7DAFA0022114641
:100D10001720FFF72FFC1720FFF71EFC00221146BB
:100D20002820FFF727FC2820FFF716FC06B0BDE8B7
:100D3000F081000000100240000C01400000211072
:100D4000000801400C4810B50A4901604FF4E13138
:100D50004160002181600C22C160C0E90412816100
:100D6000C161FFF7B9FE002803D0BDE81040FFF7CE
:100D70002CBA10BD003801401C000020FEE7FEE741
:100D800070477047FFF798BB30B58FB02821684691
:100D9000FFF7CFF914210AA8FFF7CBF901210804C6
:100DA000CDE900100024029402250491CDE90750FA
:100DB0004FF4E01009906846FFF7EAFC08B172B6FC
:100DC000FEE70F20CDE90A054FF48060CDE90C4025
:100DD00002210AA80E94FFF7FFFB002801D072B68B
:100DE000FEE70FB030BD704701680C3151E8002FAD
:100DF00022F4907241E80023002BF5D101681431F0
:100E000051E8002F22F0010241E80023002BF5D128
:100E1000016B012909D101680C3151E8002F22F042
:100E2000100241E80023002BF5D1202180F8421068
:100E3000002101637047000070B504460068016935
:100E4000E26821F44051114301612169A06808431F
:100E5000616908432168CA6841F20C639A430243FE
:100E6000CA6020684169A26921F44071114341615F
:100E70001E492068884202D1FFF754FC01E0FFF7C9
:100E800041FC00EBC00101EB0012606864218000AE
:100E9000B2FBF0F3B3FBF1F36FF018067343B2FB50
:100EA000F0F5B2FBF0F605EB8305322303EB0515F5
:100EB000B5FBF1F5B6FBF1F605F0F00505EB06150F
:100EC000B2FBF0F6B2FBF0F0B0FBF1F06FF01802FD
:100ED000504306EB800003EB0010B0FBF1F02168FB
:100EE00000F00F002844886070BD00000038014009
:100EF0002DE9F843984617460D460446089E24E01F
:100F0000701C22D0FFF7D2FAA0EB0800B0421AD82A
:100F1000CEB12068C168490717D5802D15D0402D66
:100F200013D00168C94309070FD401680025406840
:100F300000902046FFF758FF0820606484F8405076
:100F40000120BDE8F8830320FBE72068006835EA4C
:100F5000000004D00020B842D2D00020F1E70120E8
:100F6000F9E7FEE7014A024900F023B8D50F00086F
:100F7000180000200907090E002804DB00F1E0201A
:100F800080F80014704700F00F0000F1E02080F8B6
:100F9000141D704702E008C8121F08C1002AFAD1C8
:100FA00070477047002001E001C1121F002AFBD1E9
:100FB00070472DE9F04116460F460446002503E030
:100FC0003946B047641C6D1C20780028F8D12846AB
:100FD000BDE8F08113B54FF0FF33012269460248A6
:100FE000FFF7E4FD00981CBD1C000020FFF76CFA21
:100FF000FFF7CAFEFFF744FEFFF7A4FE01A0FFF7CC
:10100000B1FFFEE768656C6C6F20776F726C6400EF
:10101000010202030405060708090A0B0C0D0E0F56
:101020001010000000000000000001020304060789
:101030000809000000000102030400005C10000821
:10104000000000201C000000940F00087810000829
:101050001C0000204C040000A40F00080000000049
:10106000000000000100000010000000000000006F
:0810700000127A0000000000EC
:04000005080000ED02
:00000001FF
