:020000040800F2
:1000000040060020010100083B290008A724000841
:1000100039290008350A0008E53000080000000012
:10002000000000000000000000000000172C000885
:100030006F0A000800000000152C0008192C0008A9
:100040001B0100081B0100081B0100081B01000820
:100050001B0100081B0100081B0100081B01000810
:100060001B0100081B0100081B0100081B01000800
:100070001B0100081B0100081B010008390A0008C9
:100080001B0100081B0100081B0100081B010008E0
:100090001B0100081B0100081B010008970A00084B
:1000A0001B0100081B0100081B0100081B010008C0
:1000B0001B0100081B0100081B0100081B010008B0
:1000C0001B0100081B0100081B0100081B010008A0
:1000D0001B0100087D3000081B0100081B010008FF
:1000E000710A00081B0100081B010008DFF80CD092
:1000F00000F0BAFB00480047153A0008400600200F
:100100000648804706480047FEE7FEE7FEE7FEE7B1
:10011000FEE7FEE7FEE7FEE7FEE7FEE7952C0008B8
:10012000ED000008202A04DB203A21FA02F0002129
:10013000704721FA02F3D040C2F1200291400843F7
:1001400019467047D2B201E000F8012B491EFBD2DC
:1001500070470022F6E710B513460A4604461946D2
:10016000FFF7F0FF204610BDF0B480EA0102D40F83
:100170004200B2EB410F02D20246084611464A0045
:1001800042D0C30DDDB2C1F3C752AD1A202D35DA0E
:10019000C1F3160141F4000204B15242C5F1200638
:1001A00002FA06F12A411044B3EBD05F23D0C4B168
:1001B000012DA0EBC35009DCF0BC4FF0004202EA75
:1001C000C352DBB200F5000000F0ECB9400000F1D2
:1001D000807000EBC350A0F1807040EAD1704900FC
:1001E00009E0490841EAC071A0EBC35000F50000E6
:1001F000400800EBC350F0BC00F0CBB961420122D3
:1002000002EB4101001BF6E7F0BC704781F00041B2
:10021000AAE780F00040A7E780EA010210B502F0EB
:100220000043400022D04A001FD0010E01EB1261B2
:10023000C0F35600C2F3560240F4000042F400023C
:10024000A0FB022000047F39140400D0401C50EAB7
:10025000124001D44000491EC2B20C0604EBD0107B
:10026000401C4008802A02D003E0002010BD20F08E
:100270000100002900DA0020184310BD2DE9FE4FCF
:1002800081EA030404F0004421F0004100944FF09F
:10029000000B23F0004350EA01045ED052EA03044D
:1002A0005BD0C3F30A54C1F30A552C44A4F2F334CF
:1002B0000194A0FB0254C1F3130141F48011C3F374
:1002C000130343F4801301FB024400FB034E840A32
:1002D000970A44EA815447EA8357A4FB07680295CA
:1002E0008D0A05FB07854FEA932C04FB0C54270568
:1002F000029D4FEA065847EA1637B5EB08056EEB44
:10030000070C870E920E47EA811742EA8312A7FB79
:100310000201B6EB0B0164EB00042B0D43EA0C3336
:100320005E1844EB1C50DA465146E7FB0201C5F368
:1003300013044FEA0B3343EA14534FEA0432019C8F
:1003400043EA0603A4F10C040294009CCDE900B436
:1003500000F065F903B0BDE8F08F00200146F9E731
:100360002DE9F04D81EA030404F0004B21F0004533
:1003700014464FF0000A23F0004150EA050220D055
:1003800054EA01021DD0C5F30A570246C5F3130310
:10039000C1F31300C1F30A5640F4801543F48013EF
:1003A000A7EB0608101BD64608F2FD3873EB0500D4
:1003B00002D308F1010801E092185B41B8F1000F87
:1003C00003DA00200146BDE8F08D00204FF48011D3
:1003D000064684460EE0171B73EB050705D3121B78
:1003E00063EB050306434CEA010C49084FEA300071
:1003F00092185B4150EA0107EDD152EA030012D096
:1004000082EA040083EA0501084305D0101BAB41D2
:1004100006D20122002306E000224FF0004302E052
:100420006FF0010253101AEB06004CEB085110EB71
:100430000A0041EB0B01BDE8F04D00F0E1B8C10F3F
:1004400080EAE0700844CA079623002100F0AAB8A9
:1004500096230022114600F0A5B80EB540F23341B4
:1004600002910021CDE900110A460B4600F0D7F8B1
:1004700003B000BD00F0004220F00040C10DC0F309
:10048000160040F400007F2901DA00207047962909
:1004900003DCC1F19601C84001E096398840002A8A
:1004A000F4D04042704700F0004230F000400AD0E3
:1004B000C10D01F56071C0F3160042EA0151C20896
:1004C00040071143704700200146704701F0004388
:1004D00030B421F0004150EA010206D00A0DA2F525
:1004E0006072C1F31301002A02DC30BC00207047A7
:1004F000440F44EAC104C100E01830BC00EBC25014
:1005000000F047B830B50B460146002020220124F8
:1005100009E021FA02F59D4205D303FA02F5491BD1
:1005200004FA02F52844151EA2F10102F1DC30BDE7
:100530002DE9F05F0546002092469B468846064618
:10054000814640241BE02846414647462246FFF7A5
:10055000E9FD53465A46C01A914110D31146184638
:10056000224600F093F92D1A67EB01084F46224608
:100570000120002100F08AF917EB00094E41201EEE
:10058000A4F10104DFDC484631462A464346BDE873
:10059000F09F0029A8BF7047401C490008BF20F009
:1005A0000100704710B4B0FA80FC00FA0CF050EA79
:1005B000010404BF10BC704749B1CCF1200421FAFA
:1005C00004F411FA0CF118BF012121430843A3EBF5
:1005D0000C01CB1D4FEA00614FEA102042BF002002
:1005E00010BC704700EBC35010440029A4BF10BCDE
:1005F0007047401C490008BF20F0010010BC704744
:1006000010B5141E73F1000408DA401C41F100011A
:1006100092185B411A4301D120F0010010BD2DE971
:10062000F04D92469B4611B1B1FA81F202E0B0FA68
:1006300080F22032904600F029F904460F4640EA45
:100640000A0041EA0B0153465A46084313D01146AB
:1006500053EA010019D0C8F140025046FFF762FD8D
:1006600005460E4650465946424600F00FF90843EB
:1006700005D0012004E020463946BDE8F08D002079
:10068000054346EAE0762C4337430A986305E40ABB
:10069000A0EB08000022FD0A44EA47540A3002D5C4
:1006A00000200146E9E7010510196941DDE9084527
:1006B00000196941BDE8F04DA2E72DE9FE4F8046E3
:1006C00081EA0300C00F0C46009021F0004123F0A6
:1006D0000045B8EB0200A94105D2404621469046AC
:1006E0001C460B46024623F00040104347D0270D1E
:1006F000C7F30A00C3F30A510290401A0190402840
:100700006BDAC3F3130040F4801B0098924620B1CB
:100710000023D2EB030A63EB0B0B01985946C0F19F
:100720004002504600F0B2F806460D465046594683
:10073000019A00F0BAF810EB08006141002487EA42
:10074000115284EAE7731A4340D0009A62B3019AC7
:10075000012A4FEA075215DC001B61EB02014FF042
:10076000004202EA0752CDE90042001C41F5801127
:1007700032462B46FFF753FF03B0BDE8F08F4046EB
:100780002146F9E7001B61EB0201001C41F58013D3
:1007900000185B412018A2F5001747EB030140EA5F
:1007A000D570B6196D4111E06D084FEA360645EA7D
:1007B000C0754FEA0752001B61EB0201001C41F5B6
:1007C000801149084FEA30000019514132462B464A
:1007D00003B0BDE8F04FFFF713BF009801224000BF
:1007E0000023D0EB020263EBE073009821464FEA4E
:1007F000E074B8EB000061EB0401E9E783F000432B
:100800005BE781F0004158E7C1F30A52C1F31301DD
:1008100040F2FF3341F480119A4202DA002001468F
:10082000704740F233439A42A2F2334202DC524212
:10083000FFF778BC00F02AB830B5041E71F100044F
:1008400004DB4FF00044404264EB0101141E73F1DD
:10085000000405DB1C464FF00043524263EB0403E7
:10086000994208BF904230BD064C074D06E0E06853
:1008700040F0010394E8070098471034AC42F6D3E7
:10088000FFF738FCF842000818430008202A04DB70
:10089000203A00FA02F1002070479140C2F1200393
:1008A00020FA03F3194390407047202A06DBCB1748
:1008B000203A41FA02F043EAE07306E041FA02F31B
:1008C000D040C2F120029140084319467047000011
:1008D00070B5044600688168C943C90717D18168AB
:1008E00021F00101816000F01FFE05460AE000BF13
:1008F00000F01AFE401B022804D920688068C0431B
:10090000C00706D020688068C043C007F0D0002030
:1009100070BDA06A40F01000A062E06A40F00100E3
:10092000E062012070BD0000F8B500260446009684
:1009300000688168C943C9072DD0816841F0010171
:100940008160164816490068B0FBF1F000E0401ED7
:1009500000900028FBD100F0E7FD054616E000BF3F
:1009600000F0E2FD401B022810D920688068C043D7
:10097000C0070BD0A06A40F01000A062E06A40F00F
:100980000100E06284F824600120F8BD20688068DE
:10099000C043C007E4D10020F8BD000010000020D3
:1009A00040420F003EB500252C461C4800F0C6FA18
:1009B00064211A4800F024FA18B9184800F062F9C6
:1009C0000544641CE4B20A2CEFD30A20B5FBF0F016
:1009D000FFF743FD4FF06632114BFFF74FFC00224B
:1009E000104BFFF7BDFCFFF771FD0446FFF75BFD01
:1009F00002460B460CA002F077FB002210210220D9
:100A00008DE80700012322460421202002F04CF843
:100A1000BDE83E404FF47A7000F070BC300000201A
:100A200066660A4000FEAF405652203A20252E321C
:100A300066560A00FEE70000014800F04FBB0000C8
:100A4000FC01002030B590F840500124AC40C56B4B
:100A50006C60046863604368102B036803D099607E
:100A60000068C26030BD9A600068C16030BD7047E8
:100A700010B54FF4805000F055FC4FF4005000F0DA
:100A800051FC4FF4804000F04DFCBDE810404FF4A5
:100A9000004000F047BC10B5202000F043FCBDE84A
:100AA00010404FF4807000F03DBC72B6FEE70000CD
:100AB000F8B500250446009590F8240001280BD0D5
:100AC000012084F824002046FFF702FF2046FFF7AC
:100AD0002BFF060002D050E00220F8BDA06A20F4EF
:100AE000885040F00200A062022000F03DFF25493E
:100AF0000968B1FBF0F0400000E0401E00900028C3
:100B0000FBD12068816841F00801816000F00CFD94
:100B1000074608E000F008FDC01B0A2803D920683A
:100B20008068000715D4206880680007F2D4206828
:100B3000816841F00401816000F0F6FC074612E094
:100B400000F0F2FCC01B0A280DD92068806840071D
:100B500009D5A06A20F0020040F01000A06284F8DD
:100B600024500120F8BD206880684007E8D4A06ABE
:100B700020F0020040F00100A06284F824503046CA
:100B8000F8BD000010000020F8B50024009490F893
:100B900024202546012A12D0012280F824204A6808
:100BA0001F23072A0DD20668776B521E02EB8202C2
:100BB00093409F430B6893401F43776319E00220E3
:100BC000F8BD06680D2A0AD2376BD21F02EB8202EB
:100BD00093409F430B6893401F43376309E0F76AD4
:100BE0000D3A02EB820293409F430B6893401F43F0
:100BF000F7620A68072306680A2A0AD3F7680A3ADE
:100C000002EB420293409F438B6893401F43F7607F
:100C100008E0376902EB420293409F438B689340A0
:100C20001F4337610A68102A01D0112A20D1124BC4
:100C300002689A4217D193681B0219D4936843F44F
:100C4000000393600968102912D10C490C4A096805
:100C5000B1FBF2F101EB8101490000E0491E009176
:100C60000029FBD104E0816A41F020018162012466
:100C700080F824502046F8BD0024014010000020D8
:100C800040420F000068C06C704700002DE9F04141
:100C90004FF0000704003D467ED0A06A002628B928
:100CA000E66284F82460204600F07EF82046FFF7D4
:100CB0000FFEA16AC90600D420B1A06A40F010005E
:100CC000A06269E0A16A21F4885141F00201A162A9
:100CD0006268E169237B0A4347EA43010A43A1684A
:100CE0004FF48077B94209D0012907D05FF00001A5
:100CF00094F814C0BCF1010F02D00AE03946F7E7BE
:100D0000F3B1A36A43F02003A362E36A43F0010353
:100D1000E3622368D3F804C02CF4694C4CEA010C5C
:100D2000C3F804C021688B68DFF870C003EA0C03C5
:100D300013438B60A168B9420BD0012909D00CE0A4
:100D4000DFF85CC0A3690CEB43330B4343F4006151
:100D5000DFE7218A0D05A5F580152168CB6A23F40C
:100D600070032B43CB62216889680E4B1940914276
:100D700008D1E662A16A21F0020141F00101A162FD
:100D8000BDE8F081A06A20F0020040F01000A062EF
:100D9000E06A40F00100E0620120F1E7FDF7E1FFC9
:100DA00000E0FFFFFE0E1FFF00B585B0002100919F
:100DB00001910291039100680E49884218D10E48B2
:100DC000816941F400718161816901F400710491CC
:100DD000816941F0040181618069694600F0040085
:100DE00004900220009003200190044800F0A6FA2D
:100DF00005B000BD00240140001002400008014081
:100E00002DE9F84300270D460446009700F08CFBBF
:100E1000804620688168C90508D5A06A40F0200096
:100E2000A06284F824700120BDE8F8834168C905F8
:100E300003D4C06A10F4700F2AD0022000F094FD91
:100E40003B490968B1FBF0F62068036939490B4258
:100E50004FEA61014FEAA1121FD1C3684FEA611C3A
:100E600013EA0C0F19D103690B4225D1C068104257
:100E700022D1142023E0681C0AD02DB100F054FBCD
:100E8000A0EB0800A84203D920680068800725D598
:100E9000206800688007EED52DE003690B4202D17F
:100EA000C168114206D0026923490A4206D1C068CE
:100EB000084203D1542002E0292000E0FC204643F0
:100EC000009816E0681C11D02DB100F02DFBA0EBAE
:100ED0000800A8420AD90098B04207D2A06A40F0A0
:100EE0000400A06284F8247003209DE70098401C51
:100EF0000090B042E6D321686FF012000860A06A4B
:100F000040F40070A06220688068C0F34240072867
:100F10000CD1207B50B9A06A20F48070A062A06A36
:100F2000C00403D4A06A40F00100A06200207BE767
:100F300010000020244992244992240070B50446F0
:100F400090F8240001280DD0012084F824002046C8
:100F5000FFF7EAFC02004FF0000005D084F82400FF
:100F6000104670BD022070BDA16A40F20123994372
:100F700041F48071A1621F4D23681F49AB4218D113
:100F80000E6816F4702F14D0A66A46F48016A66276
:100F90000E68760505D5A66A26F4005646F48056F6
:100FA000A662A66AF6040AD5E66A26F00606E66296
:100FB00006E0A66A26F48016A6625E68E9E7E062AB
:100FC00084F824006FF00200186020688368C3F37F
:100FD0004243072B05D1A84208D1096811F4702FAC
:100FE00004D0816841F480118160B9E7816841F4DF
:100FF000A001F9E7002801400424014010B590F851
:1010000021100022022905D00421816380F82020CC
:10101000012010BD01680B6823F00E030B6001680E
:101020000B6823F001030B6090F84030C46B012182
:1010300001FA03F3636080F8211080F82020104645
:1010400010BD000010B590F821100024022903D033
:101050000421816301243DE001680A6822F00E0248
:101060000A6001680A6822F001020A601A4A0168EF
:10107000914201D1012121E0174A1432914201D15C
:1010800010211BE0144A2832914201D1891515E044
:10109000114A3C32914201D189140FE00E4A50327C
:1010A000914202D14FF4803108E00B4A6432914200
:1010B00002D14FF4801101E04FF08071064A083AE6
:1010C0005160012180F82110002180F82010416B2F
:1010D00001B18847204610BD080002402DE9F05FAD
:1010E000C16B0C6801680B68D0F840C0042202FA9A
:1010F0000CF2494DDFF824A1494E4A4FDFF828B1E0
:10110000DFF828E122422CD05A072AD50A68920635
:1011100003D40A6822F004020A600168A94201D1DE
:10112000042219E0514501D1402215E0B14202D11B
:101130004FF4806210E0B94202D14FF480420BE0DC
:10114000594502D14FF4802206E0714502D14FF497
:10115000800201E04FF080622F4908394A60C16A7D
:101160003BE04FF0020808FA0CF818EA040F4FF0C1
:1011700000094FF0010235D05FEA837832D50B6861
:101180009B0605D40B6823F00A030B6080F821202E
:101190000168A94201D1022219E0514501D1202262
:1011A00015E0B14202D14FF4007210E0B94202D111
:1011B0004FF400520BE0594502D14FF4003206E0E3
:1011C000714502D14FF4001201E04FF00072124954
:1011D00008394A6080F82090816A00291AD0BDE859
:1011E000F05F0847082505FA0CF5254212D01B07C9
:1011F00010D50B6823F00E030B6090F84010C36B02
:1012000002FA01F15960826380F8212080F8209071
:10121000016BE2E7BDE8F09F080002401C000240BD
:101220003000024044000240580002406C0002407E
:1012300030B528B308C8134914221944B1FBF2F1A0
:101240008900C16310498163022141771A6843F61E
:10125000F0718A43D0E900142143D0E902452C43C0
:101260002143046921434469214384692143114393
:10127000196000214163012242770177084630BDA1
:10128000012030BDF8FFFDBF0000024070B50446EC
:1012900090F82000002501280CD0012084F82000BF
:1012A00094F821600020012E06D084F82000022549
:1012B000284670BD022070BD022684F82160A0631C
:1012C0002068066826F0010606602046FFF7BAFB94
:1012D000E06A00282068016802D041F00E0106E0B3
:1012E00021F0040101602068016841F00A010160F9
:1012F0002068016841F001010160D9E770B504463A
:1013000000F012F90546601C02D00448007804443D
:1013100000F00AF9401BA042FAD370BD040000207F
:1013200070470000044910B50A68024202D0086004
:10133000FFF7F6FF10BD0000140401402DE9F84F3F
:10134000DFF8B8910024A9F1040B23460F2709F117
:10135000040AABF1040EC9E00125A5402A40AA42C7
:101360007DD1674ED1F804C0ACEB0608B44532D04D
:1013700014DCBCF1030F3AD009DCBCF1000F2AD019
:10138000BCF1010F1CD0BCF1020F31D11DE0BCF14A
:10139000110F17D0BCF1120F2AD119E0B8F5881F30
:1013A00019D006DCB8F5803F15D0B8F5801F1FD1E5
:1013B00011E0B8F5001F0ED0B8F5041F18D10AE0EF
:1013C000CB6815E0CB681B1D12E0CB6808330FE03B
:1013D000CB680C330CE08B682BB1012B4FF008036A
:1013E00003D0456104E0042302E0056100E000232E
:1013F000FF2A01D8064601E000F104064FEA840501
:1014000001D9A5F12005D6F8008007FA05FC28EAE5
:101410000C0803FA05F548EA0508C6F800804D688F
:10142000ED0062D5374DAE6946F00106AE61AD699B
:1014300024F0030605F001050095334D06EB050C7D
:10144000DCF80850A607360F07FA06F825EA080563
:10145000DFF8B880404503D14FF0000817E044E0C2
:10146000DFF8AC80404502D14FF001080FE0DFF813
:10147000A480404502D14FF0020808E0DFF89880D0
:10148000404502D14FF0030801E04FF0040808FA8C
:1014900006F848EA0508CCF808804D68D9F80060DD
:1014A000ED024D4601D5164300E096432E604D688F
:1014B000DAF80060AD02554601D5164300E09643C8
:1014C0002E604D68DBF80060AD035D4601D5164324
:1014D00000E096432E604D68DEF80060ED0375462F
:1014E00001D5164300E096432E60641C0D682A4621
:1014F000E5407FF431AFBDE8F88F000008040140FB
:1015000000001110001002400000014000080140DE
:10151000000C014000100140001401400AB10161BB
:1015200070470904FBE7000001488068704700002D
:101530000400002070B5040025D094F83D0000257B
:1015400020B984F83C50204600F050F9242084F85B
:101550003D002068016821F00101016020680168F8
:1015600041F4004101602068016821F400410160FC
:1015700000F058FB4D4A6168914201D84C4900E0A7
:101580004C49884201D2012070BD4B492368B0FB11
:10159000F1F15E6826F03F060E435E606368934299
:1015A00006D94FF4967359434FF47A73B1FBF3F1B4
:1015B0002368491C1E6A26F03F06314319626168A0
:1015C000914210D84900401EB0FBF1F2521CC2F308
:1015D0000B02042A01D2042022E0B0FBF1F0401CEF
:1015E000C0F30B001CE0A268F2B301EBC10303EBF4
:1015F0000116431EB3FBF6F35B1C43F480431B054B
:1016000049D092B301EBC10202EB0111401EB0FBC5
:10161000F1F0401CC0F30B0040F4804040F4004067
:101620002168CA694CF6FF739A431043C861D4E934
:10163000071001432068026822F0C00211430160D4
:10164000D4E9030101432068826848F2FF339A43DA
:1016500011438160D4E9050108432168CA6822F07A
:10166000FF021043C86001E00EE016E02068016848
:1016700041F0010101602564202084F83D002563CC
:1016800084F83E50002070BD01EB4106431EB3FBC1
:10169000F6F35B1CB3E70120C2E701EB4101401EFA
:1016A000B0FBF1F0401CC0F30B00B7E7A0860100CF
:1016B00080841E0000093D0040420F002DE9FF4FCD
:1016C00083B09A46DDE9119793460446DDF84080E1
:1016D000FFF72AFF054694F83D0020287FD1192303
:1016E000012240492046009500F076FF002876D17F
:1016F00094F83C00012872D0012084F83C00206856
:101700000168C90703D1016841F001010160206847
:10171000016821F400610160212084F83D0040202F
:1017200084F83E0000262664C4F82480A4F82A9099
:10173000608D20852C48E062CDE9007553465A46FD
:101740002046049900F0C8FE70B930E02A463946B8
:10175000204600F0E7FF58B1206C042804D120682F
:10176000016841F400710160012007B0BDE8F08F0D
:10177000606A216800780861606A401C6062218D9F
:10178000491E89B22185628D521E62852268536985
:10179000DB435B070BD469B100781061606A401CC1
:1017A0006062208D401E2085608D401E6085208DEA
:1017B0000028CBD12A463946204600F0E1FE002819
:1017C000CAD154F83D0B016841F40071016020203A
:1017D00004F81E09E67766770020C6E7FFE70220D7
:1017E000C3E70000020010000000FFFF10B586B044
:1017F0000021009101910291039100680F498842F4
:101800001AD10F4CA06940F00800A061A069694698
:1018100000F008000490C0200090122001900320E6
:1018200003900848FFF78AFDE06940F40010E0618A
:10183000E06900F40010049006B010BD00540040B0
:1018400000100240000C01400248816802781144F7
:101850008160704704000020074810B5016841F01E
:1018600010010160032000F06DF80F2000F006F871
:1018700000F024F8002010BD0020024070B50D4D8E
:1018800004464FF47A712878B1FBF0F00A490968F0
:10189000B1FBF0F000F09CFB48B9102C07D20022FD
:1018A0002146501E00F02EF800206C6070BD012013
:1018B00070BD00000400002010000020094808B599
:1018C000816941F001018161816901F001010091AB
:1018D000C16941F08051C161C06900F08050009041
:1018E00008BD000000100240002809DB00F01F02C4
:1018F000012191404009800000F1E020C0F8001172
:1019000070470000F0B40E4B1B680C46C3F3022373
:10191000C3F10705042D00D90425191D072901D29B
:10192000002300E0DB1E012606FA05F1491E2140D6
:1019300099409E40761E16403143F0BC01F0E4BB56
:101940000CED00E0064900F0070208684FF6FF03BF
:10195000184040EA0220034A104308607047000024
:101960000CED00E00000FA0510B501460020234C04
:10197000012922D0022939D010291DD1616822689D
:10198000D20119D51E48C1F38342C903805C0AD530
:1019900061681B4AC1F34041921E515C194AB2FB77
:1019A000F1F1484301E0184948436168490203D412
:1019B00040000321B0FBF1F010BD226AC2F3012107
:1019C000012903D1920701D5C80310BD022905D111
:1019D000626A920702D549F6404010BD0329FCD146
:1019E00021688903F9D54FF2244010BD00F02AF98F
:1019F0006168C1F38131491C4900DBE700100240F6
:101A0000C83A000800127A0000093D002DE9F843A9
:101A100005460078354CC00754D0E0690026C00068
:101A200008D4E06940F08050E061E069012600F0F0
:101A3000805000902E480168C90512D40168804684
:101A400041F480710160FFF76FFD074605E000BFBC
:101A5000FFF76AFDC01B642823D8D8F80000C00532
:101A6000F6D5206A10F4407021D0A98801F44071A5
:101A700081421CD0206A1F49012220F440700A6074
:101A800000220A602062C00711D0FFF74DFD074613
:101A900041F2883808E000BFFFF746FDC11B414511
:101AA00002D90320BDE8F883206A8007F4D5206AB4
:101AB000696820F44070084320621EB1E06920F09C
:101AC0008050E0612878800705D56068A96820F417
:101AD0004040084360602878C00605D56068E96822
:101AE00020F48000084360600020DBE70010024023
:101AF00000700040400442422DE9F0470F460500C7
:101B000061D0434E306800F00700B84209D2306817
:101B100020F0070038433060306800F00700B8421A
:101B200051D128683B4C810712D5400703D5606826
:101B300040F4E06060602878000703D5606840F4F6
:101B4000605060606068A96820F0F0000843606041
:101B50002878C00728D06868012810D0216802289A
:101B600010D0890700292EDA616821F003010143B2
:101B70006160FFF7D9FC804641F288390DE02168A9
:101B80008903EFE78901EDE7FFF7CEFCA0EB080141
:101B9000494502D90320BDE8F0876068696800F014
:101BA0000C00B0EB810FEFD1306800F00700B842B5
:101BB0000BD9306820F0070038433060306800F0FF
:101BC0000700B84201D00120E5E72878400705D595
:101BD0006068E96820F4E0600843606028780007E6
:101BE00006D56068296920F4605040EAC100606051
:101BF00000F038F86168084AC1F30311515CC8402D
:101C00000649086006480068FFF738FE0020C2E772
:101C10000020024000100240D83A000810000020C6
:101C2000080000200448054900684968044AC1F3D7
:101C30000221515CC8407047100000200010024093
:101C4000E83A00080448054900684968044AC1F3B5
:101C5000C221515CC84070471000002000100240B3
:101C6000E83A00080E4A51680E4801F00C03042BB4
:101C700011D0082B0FD10C48C1F38343C903C05CBA
:101C80000AD55168084AC1F34041921E515C054A89
:101C90005043B0FBF1F070470449484370470000DF
:101CA0000010024000127A00B63A000800093D0018
:101CB0002DE9F84F040070D02078C04DC00749D0FE
:101CC0006868C0F38100012807D06868C0F381000C
:101CD000022809D16868C00306D52868800339D571
:101CE00060680028E7D035E06068B0F5803F0BD031
:101CF00010B1B0F5A02F11D0286820F480302860F2
:101D0000286820F4802002E0286840F480302860B1
:101D1000606890B1FFF708FC06460AE0286840F4C6
:101D200080202860F0E700BFFFF7FEFB801B6428DF
:101D300073D828688003F7D50CE0FFF7F5FB06465B
:101D400005E000BFFFF7F0FB801B6428F0D828688F
:101D50008003F7D420789A4E80074FF001094FF0A6
:101D6000000839D5686810F00C0F07D06868C0F318
:101D70008100022809D16868C00306D4286880075A
:101D800014D52069012808D110E02069B0B1C6F847
:101D90000090FFF7C9FB074605E00AE1FFF7C4FB27
:101DA000C01B0228C4D828688007F7D52868616955
:101DB00020F0F80040EAC10028600DE0C6F800807D
:101DC000FFF7B2FB074604E0FFF7AEFBC01B02289B
:101DD00023D828688007F7D4207800072CD57948C5
:101DE000A169D9B1C0F80090FFF79EFB074604E057
:101DF000FFF79AFBC01B02280FD8686A8007F7D547
:101E000071484FF4FA510068B0FBF1F0009000BF48
:101E10000098411E0091FAD20EE080E0C0F80080E8
:101E2000FFF782FB074604E0FFF77EFBC01B02289A
:101E300075D8686A8007F7D42078400760D5E869CC
:101E40000027C00008D4E86940F08050E861E869E4
:101E5000012700F0805000905C480168C90513D448
:101E60000168834641F480710160FFF75DFB8246A3
:101E700006E000BFFFF758FBA0EB0A0064284ED82D
:101E8000DBF80000C005F5D5E06801280AD008B1EC
:101E9000052813D0286A20F001002862286A20F063
:101EA000040002E0286A40F001002862E06841F284
:101EB000883B98B1FFF738FB82460BE0286A40F078
:101EC00004002862EEE700BFFFF72EFBA0EB0A013B
:101ED00059455AD8286A8007F6D50CE0FFF724FB4D
:101EE000824605E0FFF720FBA0EB0A0159454CD8DC
:101EF000286A8007F6D41FB1E86920F08050E861B5
:101F0000E06988B36968C1F38101022944D00228DD
:101F1000C6F8608004D0FFF707FB044638E034E0E1
:101F2000FFF702FB074604E0FFF7FEFAC01B02289A
:101F30002BD828688001F7D4206AB0F5803F05D1FE
:101F40006868A16820F4003008436860D4E908019B
:101F50000843696821F4741108436860C6F860900A
:101F6000FFF7E2FA044606E025E000BFFFF7DCFADF
:101F7000001B022809D828688001F7D51BE000BFA4
:101F8000FFF7D2FA001B022802D90320BDE8F88F20
:101F900028688001F4D40EE00128F7D06868226A2E
:101FA00000F48031914204D1616A00F470108842DB
:101FB00001D00120EAE70020E8E70000001002401D
:101FC00000004242800442421000002000700040A5
:101FD00010B5401EB0F1807F01D3012010BD4FF03D
:101FE000E02460610F21601701F08EF80020A061ED
:101FF00007202061002010BD70477047F8B50168C8
:1020000004460868CA684B6910F00F0F4FF00005CE
:1020100059D003F0010602F49077374365D0C10729
:1020200005D0D10503D5616C41F001016164410720
:1020300005D5D90703D0616C41F0020161648107C5
:1020400005D5D90703D0616C41F004016164010733
:1020500007D502F02001314303D0616C41F0080143
:102060006164616C00293AD0800604D5900602D5DF
:10207000204600F0C4FE20684069616CC0F3801007
:10208000090700D460B3204600F084FE2068406950
:10209000400621D52068143050E8001F21F040018F
:1020A00040E80012002AF5D1E06BA8B16D49416308
:1020B000E06BFEF7C7FF002811D0E06B416B01B069
:1020C000BDE8F040084783060FD593060DD520469E
:1020D000BDE8F84000F093BE2046FFF78EFFF8BD44
:1020E0002046FFF78AFF6564F8BD266B2023012E8A
:1020F0007CD1C6067AD5D60678D50868486800909F
:1021000048694FF00206400640D5E16B0868406818
:102110000004000CE8D0A28D8242E5D9E0858869F0
:1021200020282DD020680C3050E8001F21F4807149
:1021300040E80012002AF5D12068143050E8001F52
:1021400021F0010140E80012002AF5D12068143086
:1021500050E8001F21F0400140E80012002AF5D1AC
:1021600084F84230256320680C3050E8001F21F0CD
:10217000100140E80012002AF5D1E06BFEF73EFFA7
:102180006663A08DE18D401A81B22AE0A08DE18DB9
:10219000401A81B2E08D0028A6D00029A4D0226880
:1021A0000C3252E8000F20F4907042E80007002F34
:1021B000F5D12068143050E8002F22F0010240E8E9
:1021C0000027002FF5D184F84230256320680C30B9
:1021D00050E8002F22F0100240E80023002BF5D138
:1021E00066632046FFF708FFF8BDFFE705062BD51D
:1021F000150629D594F841002128F5D1A068B0F53D
:10220000805F01D12069B0B1206A411C2162216840
:1022100000784860E08C401E0004000CE084E3D1AC
:102220002068C16821F08001C1602068C16841F068
:102230004001C160D8E7206A0088C0F30800486008
:10224000206A801C2062E5E74006CDD55006CBD53C
:10225000CA68204622F04002CA6084F8413000F08B
:1022600021F9C1E7972C000870B5040004D094F858
:102270004100002510B106E0012070BD84F84050F7
:10228000204600F023F8242084F841002068C1682B
:1022900021F40051C160204600F012FE206801695F
:1022A00021F4904101612068416921F02A014161D6
:1022B0002068C16841F40051C1606564202084F841
:1022C000410084F842006563002070BD70B586B09F
:1022D000002506460095019502950395006823495F
:1022E000884240D12249886940F4804088618869E9
:1022F00000F480400490886940F004008861886997
:102300001C4C00F00400049048150090022001903D
:102310000320039069462046FFF710F82015CDE909
:1023200000050120029069462046FFF707F8134C8C
:102330001148C4E900058020C4E90250202025612D
:10234000C4E905502046E561FEF772FF08B1FEF7CB
:10235000ACFBF4630022114625206662FFF7D2FA37
:102360002520FFF7C1FA06B070BD0000003801401B
:10237000001002400008014058000240FC0100200B
:1023800090F84230202B01D00220704721B11AB1C1
:102390000023036300F0F0BD0120704710B5084A28
:1023A000016891420BD1074C074B21784A421944EE
:1023B000D2B24FF0FF3300F025F80020207010BD9E
:1023C0000038014000000020B400002070B50A4A27
:1023D000016891420ED1094C4FF0FF332178C1F1D1
:1023E0008002D5B2064A11442A4600F00BF8207844
:1023F0002844207070BD000000380140000000201B
:10240000B40000202DE9F843044690F841009846B6
:1024100016460D46202802D00220BDE8F88385B17B
:102420007EB100206064212084F84100FFF77CF831
:10243000A6848146E684A0682027B0F5805F02D09C
:1024400003E00120E9E7206910B12E4600250EE0E7
:1024500000260CE08021204600F0D6FDA8B9C6B1C8
:1024600016F8010B21684860E08C401EE084E08C87
:102470004B464FF00002CDF800800028EAD14FF023
:102480004001204600F0C0FD40B184F841700320B7
:10249000C3E735F8020BC0F30800E3E784F84170A6
:1024A0000020BAE77047FEE701684A69D243520547
:1024B0000FD46FF480624A61002140F8301F20225F
:1024C00042738173026942F00402026101730120C8
:1024D00070470020704700002DE9F843044600686B
:1024E0000D46DDE9089701689846164641F480716B
:1024F00001604B4600224FF001112046009700F08A
:102500006BF848B120680068C00502D54FF4007030
:1025100020640320BDE8F883216805F0FE0008610F
:102520003B464A461549204600F09EF888B9206887
:102530004169806900903A464946204600F0F2F829
:1025400048B1206C042804D12068016841F400716E
:1025500001600120DEE7F5B2B8F1010F09D0216872
:10256000300A08613A464946204600F0DBF8002868
:10257000E7D1206805610020CCE7000002000100DF
:1025800070B516460D4604461EE02046FFF78CFF48
:1025900008B1012070BD681C16D0FEF7C5FF801B76
:1025A000A84200D885B920684069C04340070BD5D0
:1025B000002044F8300F20216173A073216941F09D
:1025C000200121612073E4E720684069C04340078F
:1025D000DBD4002070BD00002DE9F0479846174677
:1025E0000D460446C1F30746DDF820902AE000BFFF
:1025F000B8F1FF3F26D0FEF797FFA0EB0901414558
:1026000002D8B8F1000F1DD12068012E16D08069C4
:1026100025EA00000004000C12D00020B84211D1BD
:10262000002044F8300F20216173A073216941F02C
:102630002001216120730120BDE8F0874069E7E7B0
:102640000120EBE72068012E0AD0806925EA00000E
:102650000004000C06D00020B842C9D00020EBE7EF
:102660004069F3E70120F7E72DE9F0479846164661
:102670000D4604464FF000094FF0200AC1F307470A
:1026800023E020684069C043400515D420680168F4
:1026900041F40071016021686FF480604861C4F802
:1026A000309084F83DA084F83E90216C41F0040104
:1026B000216484F83C9021E0701C06D0FEF734FFC2
:1026C000A0EB0800B04203D816B1012F1FD021E0C3
:1026D0002068012F15D0806925EA00000004000C55
:1026E00018D000BF44F8309F84F80DA084F80E90F5
:1026F000216941F02001216184F80C900120BDE89E
:10270000F087406925EA00000004000CEAD1206847
:10271000406901E02068806925EA00000004000C9F
:10272000AFD1ECE770B516460D4604461EE02046D4
:10273000FFF7BAFE08B1012070BD681C16D0FEF785
:10274000F3FE801BA84200D885B920684069C043C9
:1027500000060BD5002044F8300F20216173A073D0
:10276000216941F0200121612073E4E7206840697C
:10277000C0430006DBD4002070BD00003EB5002140
:10278000124800910191104A029102608160017328
:10279000017501244FF460220461C2614160FEF7BB
:1027A00075FA08B1FEF781F907200094CDE90140E0
:1027B00069460648FEF7E8F908B1FEF776F90348DE
:1027C000FEF776F93EBD00000024014030000020F5
:1027D000094808B5416941F00101416140690022A1
:1027E00000F00100009011460F20FFF78BF8BDE8C4
:1027F00008400F20FFF778B8001002402DE9F041A3
:1028000086B000252A4800950195029503958169B7
:1028100041F020018161816901F020010491816909
:1028200041F004018161816901F004010491816931
:1028300041F0080181618069DFF8788000F00800CC
:102840004FF440770490012239464046FEF766FE79
:10285000194E4FF22000CDE900060124694602948A
:102860004046FEF76BFD2002CDE900066946029462
:102870001248FEF763FD0220CDE90250CDE9007455
:1028800069464046FEF75AFD002211461720FFF721
:1028900039F81720FFF728F8002211462820FFF703
:1028A00031F82820FFF720F806B0BDE8F0810000DD
:1028B00000100240000C01400000211000080140FF
:1028C0000D4810B50B4901600C49416000214FF4DF
:1028D00080428160C0E9031241618161C16101628E
:1028E000FEF728FE002803D0BDE81040FEF7DDB853
:1028F00010BD00000054004060000020A0860100D0
:102900000C4810B50A4901604FF4E13141600021E3
:1029100081600C22C160C0E904128161C161FFF7CE
:10292000A3FC002803D0BDE81040FEF7BEB810BDE0
:1029300000380140B4010020FEE7FEE770B5002436
:1029400004F1B000C0B200F041F9002000F03EF9FF
:10295000102000F03BF90025002000F049F96D1C23
:10296000EDB2802DF8D3641CE4B2082CE8D370BD1E
:1029700070B5C820FEF7C2FC044D0024285D00F0AD
:1029800025F9641CE4B2172CF8D370BD14000020A4
:1029900010B50446B031C8B200F018F9102040EA72
:1029A000141000F013F904F00F00BDE8104000F01F
:1029B0000DB900002DE9F047203A0024089E0F468B
:1029C0008146D5B27F2803D900208F1C8146FFB2F3
:1029D000102B394612D0FFF7DBFF1B4905EB4500F2
:1029E00001EB4005285D0EB1C043C0B200F000F914
:1029F000641CE4B2062CF5D3BDE8F087FFF7C8FFEE
:102A0000DFF8488004EB051118F801000EB1C0434F
:102A1000C0B200F0EDF8641CE4B2082CF2D37F1CC5
:102A2000F9B24846FFF7B4FF0024474604EB05100F
:102A30003844007A0EB1C043C0B200F0D9F8641C2B
:102A4000E4B2082CF2D3D7E7F03A0008183D0008AA
:102A50002DE9F8431E461746894604460025DDF851
:102A6000208014E0334649462046CDF80080FFF729
:102A7000A1FF0C2E10D00834E4B27A2C01D90C2E10
:102A80000CD0782C01D9102E08D06D1CEDB27A5DD7
:102A9000002AE7D1BDE8F883A41DEDE709F10100A4
:102AA000002400F0FF09F0E72DE9FF4F83B08146D5
:102AB000DDF840B0129F1C4690464FF0000A1046C9
:102AC00012F1FF4F06D35C1C88F00040E4B24FF0D7
:102AD000010A8046FDF7CEFC0190119800254608BA
:102AE00028E0601B401EC1B20A2000F0DBFF019904
:102AF000B1FBF0F10A20B1FBF0F200FB12100299D9
:102B000029B9611E8D4202DA48B1012102913030AB
:102B1000C2B206FB0590C0B20097119B05E006FB10
:102B20000590119BC0B2009720220499FFF742FF45
:102B30006D1CEDB2A542D4D306FB0490C0B2009741
:102B40002E22119B0499FFF735FF59460A2000F009
:102B5000A9FFFDF77DFC05460198FDF770FC414695
:102B6000FDF757FB2946FDF757FBFDF783FC804631
:102B700000251CE0ABEB0500401EC1B20A2000F0AE
:102B800091FFB8FBF0F10A20B1FBF0F200FB12114B
:102B90002A1909F1050006FB02003031CAB2C0B2A1
:102BA0000097119B0499FFF705FF6D1CEDB25D4581
:102BB000E0D3BAF1000F06D000972D224846119BB2
:102BC0000499FFF7F7FE07B0BDE8F08F01B584B0B8
:102BD00001214FF4807204A88DE807000B46002203
:102BE00078210248FEF76AFD05B000BD60000020B4
:102BF00001B584B001214FF4807204A88DE807006C
:102C00000B46402278210248FEF758FD05B000BD72
:102C10006000002070477047FEF716BE30B593B0D5
:102C200028216846FDF795FA14210AA8FDF791FAC4
:102C3000002501200F9510951195010412958DE83E
:102C4000230004904FF4E010CDE90810022407940B
:102C50006846FFF72DF808B172B6FEE70AA90F2003
:102C600081E831004FF48060CDE90D0502210AA80A
:102C7000FEF742FF08B172B6FEE74FF40040119034
:102C80000F940FA8FEF7C2FE002801D072B6FEE72F
:102C900013B030BD704710B5406A0021C185C184B2
:102CA000FFF7ABF910BD70B5446A2068406994F82D
:102CB0004110C0F3C0100025212904D118B1E584CA
:102CC000204600F08EF82068406994F84210C0F366
:102CD0008010222904D118B1E585204600F05AF869
:102CE000606C40F0100060642046FFF786F970BD0C
:102CF00010B50146406A096809684FF0000289066C
:102D00002ED4C28501680C3151E8003F23F4807352
:102D100041E80034002CF5D10168143151E8003F3E
:102D200023F0010341E80034002CF5D1016814318F
:102D300051E8003F23F0400341E80034002CF5D176
:102D4000202180F84210016B012909D101680C3162
:102D500051E8003F23F0100341E80034002CF5D186
:102D60004263016B012902D0FFF718FB10BD818D72
:102D7000FFF742F910BD10B5406A01214163016BB4
:102D8000012902D0FFF722FB10BD818D4908FFF712
:102D900033F910BD01680C3151E8002F22F4907214
:102DA00041E80023002BF5D10168143151E8002FD0
:102DB00022F0010241E80023002BF5D1016B01292B
:102DC00009D101680C3151E8002F22F0100241E8CE
:102DD0000023002BF5D1202180F84210002101634F
:102DE000704701680C3151E8002F22F0C00241E821
:102DF0000023002BF5D1202180F84110704708B541
:102E000090F84210222901D0022008BD82684FF4B8
:102E100080539A4201D1016921B1816A9A421BD043
:102E20004AB10AE00268816A5268C2F308020A8065
:102E3000816A891C08E0026972B10268526802F076
:102E40007F020A70816A491C8162C18D491E090492
:102E5000090CC18503D01BE002685268F1E70168E4
:102E6000CA6822F02002CA600168CA6822F480722F
:102E7000CA6001684A6922F001024A61202180F893
:102E8000421000214163026B012A03D0FFF786FA4A
:102E9000002008BD016301680C3151E8002F22F0C9
:102EA000100241E80023002BF5D101680A68D20620
:102EB00002D50A6849680091818DFFF79DF8E7E720
:102EC00070B5044600680169E26821F4405111437D
:102ED00001612169A0680843616908432168CA68E3
:102EE00041F20C639A430243CA6020684169A269B7
:102EF00021F44071114341611E492068884202D18A
:102F0000FEF7A0FE01E0FEF78DFE00EBC00101EB35
:102F10000012606864218000B2FBF0F3B3FBF1F3B0
:102F20006FF018067343B2FBF0F5B2FBF0F605EB59
:102F30008305322303EB0515B5FBF1F5B6FBF1F67E
:102F400005F0F00505EB0615B2FBF0F6B2FBF0F06C
:102F5000B0FBF1F06FF01802504306EB800003EB7A
:102F60000010B0FBF1F0216800F00F0028448860E9
:102F700070BD00000038014038B58162044682858A
:102F8000002013466064222284F84220E56B1B4A2D
:102F9000AA62E56B1A4AEA62E56B1A4A2A63E26B97
:102FA00050630A462168E06B091DFEF76FF920683F
:102FB000016840680090206948B120680C3050E8F2
:102FC000001F41F4807140E80012002AF5D120680A
:102FD000143050E8001F41F0010140E80012002ABF
:102FE000F5D12068143050E8001F41F0400140E85E
:102FF0000012002AF5D1002038BD0000F12C000895
:10300000772D0008A72C00082DE9F84398461746AD
:103010000D460446089E24E0701C22D0FEF784FA78
:10302000A0EB0800B0421AD8CEB12068C1684907A9
:1030300017D5802D15D0402D13D00168C94309073D
:103040000FD401680025406800902046FFF7A2FEDB
:103050000820606484F840500120BDE8F883032014
:10306000FBE72068006835EA000004D00020B84281
:10307000D2D00020F1E70120F9E7000010B50448A4
:10308000FEF7BCFFBDE81040014800F003B80000A7
:10309000B401002038B50F4A0168914218D10A687E
:1030A000D243D20614D40A68496800910A490968D3
:1030B00049680A4C4A424FF0FF332178521AD5B280
:1030C000074A11442A46FFF79DF9207828442070CA
:1030D00038BD000000380140FC0100200000002045
:1030E000B4000020FEE700000FB4054B10B503A9A3
:1030F000044A029800F0EAF810BC5DF814FB0000E6
:10310000FD3900082C0000200907090E002804DB07
:1031100000F1E02080F80014704700F00F0000F18B
:10312000E02080F8141D704702E008C8121F08C193
:10313000002AFAD170477047002001E001C1121F38
:10314000002AFBD1704700002DE9FF5F82B000210B
:10315000DDE90430020DDDF840B0034318D044F639
:103160001050A2F2FF3242431514119801281FD0CB
:10317000A5EB0B00401C5FEA000A4FF000064E4F23
:10318000DFF83891B046504615D5CAF1000413E077
:10319000119801244AA3012801D16FEA0B0102987A
:1031A000119AC0E90031C0E9024206B0BDE8F09FC3
:1031B000CBF10000DFE704460021404A491842EB0A
:1031C0000450CDE9001012E0E00707D032463B463C
:1031D00040464946FDF752F88046894632463B460E
:1031E00010461946FDF74AF806460F466410002CB3
:1031F000EAD1DDE90401DDE90023BAF1000F06DAC6
:10320000FDF73CF842464B46FDF738F805E0FDF780
:10321000A7F842464B46FDF7A3F804460E460022A7
:10322000284BFDF709FB03D84FF0FF30014607E0BC
:103230000022254B20463146FDF73FFAFDF7E4FA20
:10324000102409E0002C0ADB0A220023FDF770F9A4
:10325000039B30321A55641E50EA0102F2D1641CFD
:10326000039AC4F111031444119A012A03D00122D4
:1032700008430DD10AE0084304D000204FF0110BA1
:10328000119072E7A3EB0B056D1E0DE05B4504DDAD
:103290004FF0000205F1010504E003DA4FF00002EF
:1032A000A5F10105002AECD002981199C0E902317C
:1032B000C0E9004579E70000000014400000F03F3D
:1032C000300000000000F0430000E03F2DE9FF4F18
:1032D00095B09B468946064600250FE2252877D102
:1032E00000242746F84A0121059400E0044316F81B
:1032F000013F203B01FA03F01042F7D130782A2831
:1033000011D06FF02F033078A0F13002092A16D8BF
:10331000059A44F0020402EB820203EB42021044DD
:10332000761C0590EFE759F8042B0592002A03DA82
:10333000504244F40054059044F00204761C307866
:103340002E2816D116F8010F44F004042A280DD0B7
:103350006FF02F023078A0F13003092B09D807EB6A
:10336000870302EB4303C718761CF3E759F8047B85
:10337000761C30786C280FD006DC4C2817D06828D3
:103380000DD06A2814D104E0742810D07A280FD107
:103390000DE044F400140AE044F4801401E044F425
:1033A00040147278824202D104F58014761C761C97
:1033B000307866280BD013DC582877D009DC002839
:1033C00075D04528F6D04628F4D047281AD19DE17B
:1033D00018E0632835D0642879D0652812D195E1AA
:1033E000702873D008DC6728F1D069286FD06E2868
:1033F0000DD06F2806D1B5E073282CD0752875D074
:10340000782874D05A46179990476D1C75E1C4F31B
:103410000250022809D003280DD0D9F80010042842
:103420000DD00D6009F1040967E1D9F80010EA1721
:10343000C1E90052F6E7D9F800100D80F2E70D70EF
:10344000F0E719F8041B8DF8001000208DF801003A
:10345000EA46012003E059F804AB4FF0FF30610762
:103460004FF0000102D40DE008F101018846B94295
:103470000FDA8045F8DB1AF808100029F4D108E0CB
:1034800008F1010188468142FADB1AF80810002988
:10349000F6D105985B46A0EB080721463846179AF7
:1034A00000F094FA284400EB080507E04DE029E11C
:1034B0000DE01AF8010B5A4617999047B8F1010828
:1034C000F7D25B4621463846179A13E142E00A22BA
:1034D0000092C4F302524FF0000A022A08D059F8B1
:1034E00004CB032A4FEAEC710AD00DE029E02AE070
:1034F00009F1070121F00702F2E802C1914609E053
:103500000FFA8CFC4FEAEC71042A03D14FFA8CFCC1
:103510004FEAEC71002907DA0A460021DCF1000CC1
:1035200061EB02012D2202E0220504D52B228DF849
:103530000420012203E0E20701D02022F7E79046B1
:1035400059E00A2102E010220DE010214FF0000A9C
:1035500000910BE010224FF0000A44F00404082709
:10356000009203E008224FF0000A0092C4F30252D6
:10357000022A05D059F804CB0021032A08D009E01B
:1035800009F1070121F00702F2E802C1914605E0C6
:103590001FFA8CFC042A01D10CF0FF0C4FF000083C
:1035A000220728D5702806D0009B83F0100353EA29
:1035B0000A0305D00EE040228DF80420012208E025
:1035C0005CEA010206D030228DF804208DF8050057
:1035D00002229046009B83F0080353EA0A030AD1B3
:1035E0005CEA010201D1620705D530228DF8042082
:1035F0004FF001087F1E582804D034A003900EA875
:1036000002900DE036A0F9E753466046009AFCF7B9
:103610008FFF84460398825C0298401E02900270DD
:103620005CEA0100F0D1029806A9081A00F1200A0C
:10363000600702D524F4803400E00127574502DDFD
:10364000A7EB0A0000E0002000EB0A0100900598BB
:103650004144401A0590E00306D45B462146179A80
:10366000059800F0B3F90544002706E001A85A4682
:10367000C05D179990476D1C7F1C4745F6DBE00342
:103680000CD55B462146179A059800F09FF9054432
:1036900004E030205A46179990476D1C0099481E47
:1036A00000900029F5DC08E0029802995A4600785B
:1036B000491C0291179990476D1CBAF10001AAF1BB
:1036C000010AF1DC65E100000928010030313233E4
:1036D000343536373839616263646566000000004E
:1036E0003031323334353637383941424344454638
:1036F0000000000000F058F90544761C30780028DE
:103700007FF4ECAD19B02846BDE8F08F620700D415
:10371000062709F1070222F0070CFCE80223E14624
:1037200003F000485FEA080C02D00FF2702C0DE0A5
:103730005FEA045C02D50FF2682C07E05FEAC47C04
:1037400002D00FF2602C01E0AFF2700C4FF0FF38A6
:1037500023F00043CDF850C065280CD006DC452886
:1037600009D046281DD047283DD13DE0662818D015
:1037700067287ED138E00021112F01DB112000E005
:10378000781CCDE9000106A90EA8FFF7DDFCDDE9F4
:103790000F010E9A03910021009207F1010A049192
:1037A0004DE04FF000400097CDE9011006A90EA8AA
:1037B000FFF7CAFCDDE90F0203920E9B119900226C
:1037C000DDF80CA00093049211B9791C00EB010AFA
:1037D000B7EB0A0004D4C0F1FF3007F1010A0490EE
:1037E000AAEB0700019044E0012F00DA0127002135
:1037F000112F01DD112000E03846CDE9000106A9B6
:103800000EA8FFF7A1FCDDE90F010E9A039100213C
:1038100004910092BA4621070CD40399514500DA6D
:103820008A46BAF1010F05DD009AAAF10101515C47
:10383000302908D0B84202DA10F1040F06DA01216B
:10384000CDE9011015E0AAF10101E9E7002805DC46
:10385000049901440491AAEB000102E0411C514586
:1038600000DD8A460499401A401C01904FF0004048
:103870000290200704D40198504501DBCDF8048064
:1038800000208DF84F0002980DF14F07B0F1004F66
:1038900025D02B200E9002984FF0020800280CDA59
:1038A000404202902D200E9007E00A210298FCF77A
:1038B00029FE3031029007F8011DB8F10001A8F18E
:1038C0000108F2DC02980028EFD1791E0E980870EA
:1038D000307800F0200040F0450007F8020D12A8F3
:1038E000C01B00F107081498007800B1012000EB1C
:1038F0000A01019801EBE07105984144401A401E0D
:103900000590E00306D45B462146179A059800F01F
:103910005DF805441498007818B15A4617999047F5
:103920006D1CE00324D55B462146179A059800F0EC
:103930004DF805441CE00498002807DBDDE903018D
:10394000884203DD0098405C179901E01799302008
:103950005A469047049805F10105401C04900198CF
:10396000401E019004D12E205A46179990476D1C95
:10397000BAF10001AAF1010ADDDC05E017F8010B3C
:103980005A46179990476D1CB8F10001A8F101083B
:10399000F4DC5B462146179A0598ABE62D00000043
:1039A0002B000000200000002DE9F0410446002516
:1039B0001E461746880404D405E039462020B04747
:1039C0006D1C641EF9D52846BDE8F0812DE9F04153
:1039D000044600251E469046C80301D5302700E066
:1039E0002027880404D505E041463846B0476D1CC1
:1039F000641EF9D52846BDE8F081000013B54FF0EC
:103A0000FF33012269460248FEF7FCFC00981CBD0A
:103A1000B401002008B5FDF71FFFFFF7FFF8FEF720
:103A2000EDFEFEF7D5FEFEF76BFFFEF7A7FEFEF7F5
:103A300047FFFEF79DFFFEF781FF11480068C16850
:103A400041F01001C1604FF480720E490C48FEF73E
:103A500097FC0DA0FFF748FB002410230DA2214680
:103A60001E200094FEF7F4FF10230DA20421002075
:103A70000094FEF7EDFF00BFFCF794FFFCE70000A9
:103A8000B4010020B4000020505752205445535434
:103A90000D0A0000505752205445535400000000B6
:103AA00056523A000246012000E05043491EC9B276
:103AB000FBD27047010202030405060708090A0B3E
:103AC0000C0D0E0F10100102020304050607080971
:103AD0000A0B0C0D0E0F101000000000000000007B
:103AE00001020304060708090000000001020304A4
:103AF0000000000000000000002F00000000070090
:103B0000070000147F147F1400242A7F2A12006209
:103B100064081323003649552250000005030000B5
:103B200000001C224100000041221C000014083E3D
:103B300008140008083E0808000000A06000000803
:103B40000808080800006060000000201008040257
:103B5000003E5149453E0000427F40000042615115
:103B60004946002141454B31001814127F100027AF
:103B700045454539003C4A49493000017109050372
:103B800000364949493600064949291E00003636A3
:103B90000000000056360000000814224100001406
:103BA00014141414000041221408000201510906E3
:103BB00000324959513E007C1211127C007F494964
:103BC0004936003E41414122007F4141221C007F95
:103BD00049494941007F09090901003E4149497AA3
:103BE000007F0808087F0000417F4100002040411D
:103BF0003F01007F08142241007F40404040007F89
:103C0000020C027F007F0408107F003E4141413ECC
:103C1000007F09090906003E4151215E007F091914
:103C200029460046494949310001017F0101003F11
:103C30004040403F001F2040201F003F4038403F91
:103C400000631408146300070870080700615149F5
:103C5000454300007F41410000552A552A55000088
:103C600041417F0000040201020400404040404006
:103C7000000001020400002054545478007F48449E
:103C8000443800384444442000384444487F0038D5
:103C90005454541800087E0901020018A4A4A47CFE
:103CA000007F080404780000447D400000408084C8
:103CB0007D00007F102844000000417F4000007C10
:103CC00004180478007C080404780038444444381C
:103CD00000FC242424180018242418FC007C080468
:103CE000040800485454542000043F444020003C41
:103CF0004040207C001C2040201C003C4030403CC8
:103D0000004428102844001CA0A0A07C0044645457
:103D10004C4414141414141400000000000000009B
:103D20000000000000000000000000F8000000009B
:103D3000000000333000000000100C06100C0600DC
:103D4000000000000000000040C07840C078400043
:103D5000043F04043F040400007088FC08300000A5
:103D6000001820FF211E0000F008F000E0180000FD
:103D700000211C031E211E0000F0088870000000B6
:103D80001E2123241927211010160E000000000008
:103D90000000000000000000000000E01804020025
:103DA000000000071820400000020418E000000096
:103DB0000040201807000000404080F08040400094
:103DC0000202010F01020200000000F000000000EA
:103DD0000101011F010101000000000000000000BE
:103DE00080B0700000000000000000000000000033
:103DF00000010101010101010000000000000000BC
:103E00000030300000000000000000008060180456
:103E1000006018060100000000E010080810E00033
:103E2000000F102020100F00001010F800000000FC
:103E30000020203F20200000007008080888700043
:103E400000302824222130000030088888483000C3
:103E50000018202020110E000000C02010F80000E3
:103E600000070424243F240000F80888880808007C
:103E70000019212020110E0000E010888818000091
:103E8000000F112020110E0000380808C838080063
:103E90000000003F000000000070880808887000E3
:103EA000001C222121221C0000E010080810E00064
:103EB0000000312222110F00000000C0C0000000ED
:103EC0000000003030000000000000800000000012
:103ED000000080600000000000008040201008000A
:103EE00000010204081020004040404040404000D3
:103EF00004040404040404000008102040800000AE
:103F00000020100804020100007048080808F000B2
:103F10000000003036010000C030C828E810E00082
:103F20000718272423140B000000C038E00000000D
:103F3000203C23020227382008F888888870000077
:103F4000203F202020110E00C0300808080838004B
:103F5000071820202010080008F808080810E000C2
:103F6000203F202020100F0008F88888E808100063
:103F7000203F20202320180008F88888E808100037
:103F8000203F200003000000C0300808083800006F
:103F900007182020221E020008F808000008F80870
:103FA000203F210101213F20000808F808080000F7
:103FB0000020203F2020000000000808F80808002A
:103FC000C08080807F00000008F888C028180800A2
:103FD000203F20012638200008F8080000000000DB
:103FE000203F20202020300008F8F800F8F80800D2
:103FF000203F003F003F200008F830C00008F808CC
:10400000203F200007183F00E01008080810E000DB
:104010000F10202020100F0008F808080808F000F2
:10402000203F210101010000E01008080810E00015
:104030000F18242438504F0008F8888888887000AA
:10404000203F2000030C302000708808080838004A
:104050000038202121221C00180808F80808180040
:104060000000203F2000000008F808000008F808C1
:10407000001F202020201F000878880000C8380872
:10408000000007380E010000F80800F80008F800EA
:10409000033C0700073C0300081868808068180884
:1040A00020302C03032C30200838C800C838080002
:1040B0000000203F2000000010080808C838080051
:1040C0002038262120201800000000FE02020200F5
:1040D0000000007F40404000000C30C000000000A5
:1040E000000000010638C00000020202FE000000CD
:1040F000004040407F000000000004020202040073
:1041000000000000000000000000000000000000AF
:104110008080808080808080000202040000000097
:10412000000000000000000000008080808000008F
:104130000019242222223F2008F80080800000007D
:10414000003F112020110E00000000808080000040
:10415000000E112020201100000000808088F8004F
:10416000000E112020103F20000080808080000081
:10417000001F222222221300008080F088888818E5
:104180000020203F202000000000808080808000F0
:10419000006B94949493600008F800808080000085
:1041A000203F210000203F20008098980000000060
:1041B0000020203F20200000000000809898000090
:1041C00000C08080807F000008F8000080808000B0
:1041D000203F24022D302000000808F800000000D5
:1041E0000020203F20200000808080808080800090
:1041F000203F20003F20003F808000808080000022
:10420000203F210000203F200000808080800000AF
:10421000001F202020201F008080008080000000E0
:1042200080FFA12020110E0000000080808080000F
:10423000000E112020A0FF80808080008080800000
:1042400020203F212000010000008080808080002D
:104250000033242424241900008080E080800000A2
:104260000000001F202000008080000000808000EF
:10427000001F202020103F20808080000080808050
:1042800000010E30080601008080008000808080E0
:104290000F300C030C300F00008080008080800005
:1042A0000020312E0E312000808080000080808030
:1042B00080818E70180601000080808080808000E0
:1042C0000021302C2221300000000000807C0202FE
:1042D00000000000003F40400002027C800000001F
:1042E0000040403F0000000000000000FF00000010
:1042F00000000000FF00000018430008000000203C
:104300003000000028310008484300083000002039
:104310001006000038310008000000000100000015
:10432000100000000000000000127A00AED580A846
:104330003FD30040A1C8DA1281CFD9F1DB40A4A657
:084340008D14AF000000000025
:04000005080000ED02
:00000001FF
