:020000040800F2
:10000000A0080020010100082F170008C1150008F2
:100010002D170008E5070008432000080000000035
:10002000000000000000000000000000411E000869
:10003000E707000800000000071C0008431E000836
:100040001B0100081B0100081B0100081B01000820
:100050001B0100081B0100081B0100081B01000810
:100060001B0100081B0100081B0100081B01000800
:100070001B0100081B0100081B0100081B010008F0
:100080001B0100081B0100081B0100081B010008E0
:100090001B0100081B0100081B0100081B010008D0
:1000A0001B0100081B0100081B0100081B010008C0
:1000B0001B0100081B0100081B0100081B010008B0
:1000C0001B0100081B0100081B0100081B010008A0
:1000D0001B0100081B0100081B0100081B01000890
:1000E0001B0100081B0100081B010008DFF80CD0F1
:1000F00000F066FB0048004771290008A0080020B6
:100100000648804706480047FEE7FEE7FEE7FEE7B1
:10011000FEE7FEE7FEE7FEE7FEE7FEE7C71E000894
:10012000ED000008202A04DB203A21FA02F0002129
:10013000704721FA02F3D040C2F1200291400843F7
:100140001946704738B5D0E90221491E01EB41013B
:1001500002EBC1014268C1EB011102EB81010268AF
:10016000C1EB011102EB8102D0E9043101EB410145
:1001700003EB81013023A1F5527191FBF3F4174D8C
:100180006C4302EBC41291FBF3F403FB14110092D5
:100190001A2902DB124B1A4400920C2291FBF2F353
:1001A000104C6343009C04EBC313009391FBF2F3E8
:1001B00002FB13110C4A08E0491E40F2A324535CD1
:1001C0006343009C04EBC31300930029F4DC014655
:1001D000684600F039FA009838BD00003F0C0F0067
:1001E0008051010067C2030094330008D2B201E0DD
:1001F00000F8012B491EFBD270470022F6E710B52C
:1002000013460A4604461946FFF7F0FF204610BD84
:1002100010B5002200E0521C835C8C5CA34201D12B
:10022000002BF8D1D8B2E1B2401A10BD2DE9FE4F33
:10023000804681EA0300C00F0C46009021F0004187
:1002400023F00045B8EB0200A94105D24046214603
:1002500090461C460B46024623F00040104347D010
:10026000270DC7F30A00C3F30A510290401A019008
:1002700040286BDAC3F3130040F4801B00989246C9
:1002800020B10023D2EB030A63EB0B0B0198594614
:10029000C0F14002504600F0B0F906460D46504607
:1002A0005946019A00F0B8F910EB080061410024AA
:1002B00087EA115284EAE7731A4340D0009A62B386
:1002C000019A012A4FEA075215DC001B61EB02017B
:1002D0004FF0004202EA0752CDE90042001C41F50E
:1002E000801132462B4600F004FA03B0BDE8F08FCF
:1002F00040462146F9E7001B61EB0201001C41F575
:10030000801300185B412018A2F5001747EB03018A
:1003100040EAD570B6196D4111E06D084FEA360616
:1003200045EAC0754FEA0752001B61EB0201001C51
:1003300041F5801149084FEA300000195141324619
:100340002B4603B0BDE8F04F00F0C4B9009801227D
:1003500040000023D0EB020263EBE07300982146DB
:100360004FEAE074B8EB000061EB0401E9E783F0C9
:1003700000435BE781F0004158E72DE9FE4F81EA39
:10038000030404F0004421F0004100944FF0000BFE
:1003900023F0004350EA01045ED052EA03045BD02C
:1003A000C3F30A54C1F30A552C44A4F2F334019464
:1003B000A0FB0254C1F3130141F48011C3F31303F2
:1003C00043F4801301FB024400FB034E840A970AA6
:1003D00044EA815447EA8357A4FB076802958D0AD3
:1003E00005FB07854FEA932C04FB0C542705029D5F
:1003F0004FEA065847EA1637B5EB08056EEB070CCF
:10040000870E920E47EA811742EA8312A7FB020188
:10041000B6EB0B0164EB00042B0D43EA0C335E18C2
:1004200044EB1C50DA465146E7FB0201C5F31304C6
:100430004FEA0B3343EA14534FEA0432019C43EA78
:100440000603A4F10C040294009CCDE900B400F072
:1004500050F903B0BDE8F08F00200146F9E72DE91F
:10046000F04D81EA030404F0004B21F000451446EE
:100470004FF0000A23F0004150EA050220D054EA70
:1004800001021DD0C5F30A570246C5F31303C1F399
:100490001300C1F30A5640F4801543F48013A7EB10
:1004A0000608101BD64608F2FD3873EB050002D390
:1004B00008F1010801E092185B41B8F1000F03DA7E
:1004C00000200146BDE8F08D00204FF48011064663
:1004D00084460EE0171B73EB050705D3121B63EB75
:1004E000050306434CEA010C49084FEA3000921814
:1004F0005B4150EA0107EDD152EA030012D082EAD3
:10050000040083EA0501084305D0101BAB4106D265
:100510000122002306E000224FF0004302E06FF0CA
:10052000010253101AEB06004CEB085110EB0A00C5
:1005300041EB0B01BDE8F04D00F0CCB830B5041E26
:1005400071F1000404DB4FF00044404264EB010110
:10055000141E73F1000405DB1C464FF000435242A9
:1005600063EB0403994208BF904230BD30B50B469F
:10057000014600202022012409E021FA02F59D42D3
:1005800005D303FA02F5491B04FA02F52844151EA7
:10059000A2F10102F1DC30BD2DE9F05F054600203B
:1005A00092469B4688460646814640241BE02846E4
:1005B000414647462246FFF7B5FD53465A46C01A04
:1005C000914110D311461846224600F016F82D1A14
:1005D00067EB01084F4622460120002100F00DF88C
:1005E00017EB00094E41201EA4F10104DFDC484650
:1005F00031462A464346BDE8F09F202A04DB203AD4
:1006000000FA02F1002070479140C2F1200320FA65
:1006100003F3194390407047202A06DBCB17203A9A
:1006200041FA02F043EAE07306E041FA02F3D040F7
:10063000C2F120029140084319467047014900F079
:1006400003B800007004002010B500683C22B0FB25
:10065000F2F302FB1303B0FBF2F00B60B0FBF2F31A
:1006600002FB1303B0FBF2F018224B60B0FBF2F375
:1006700002FB1303B0FBF2F0021D8B600723B2FBF9
:10068000F3F403FB1422800040F2B55300F66C3003
:100690008A61B0FBF3F2B0FBF3F403FB14004432C5
:1006A00080084A61C8613B2802D3920700D0401CF1
:1006B0000022074C13460A61E25C824203D8801A8A
:1006C0005B1C0B61F8E7401CC860084610BD0000C9
:1006D000A033000810B5141E73F1000408DA401CA2
:1006E00041F1000192185B411A4301D120F0010051
:1006F00010BD2DE9F04D92469B4611B1B1FA81F241
:1007000002E0B0FA80F220329046FFF776FF04460E
:100710000F4640EA0A0041EA0B0153465A46084395
:1007200013D0114653EA010019D0C8F140025046D7
:10073000FFF7F8FC05460E46504659464246FFF77D
:100740005CFF084305D0012004E020463946BDE89F
:10075000F08D0020054346EAE0762C4337430A98A3
:100760006305E40AA0EB08000022FD0A44EA4754AE
:100770000A3002D500200146E9E701051019694158
:10078000DDE9084500196941BDE8F04DA2E7C1F374
:100790000A52C1F3130140F2FF3341F480119A422F
:1007A00002DA00200146704740F233439A42A2F237
:1007B000334202DC5242FFF7B5BCFFF71EBF000018
:1007C000064C074D06E0E06840F0010394E807009E
:1007D00098471034AC42F6D3FFF78CFCAC330008DA
:1007E000CC330008FEE7704772B6FEE770B50446EA
:1007F00000F004F90546601C02D004480078044467
:1008000000F0FCF8401BA042FAD370BD00000020AD
:100810002DE9F84FDFF8B8910024A9F1040B234625
:100820000F2709F1040AABF1040EC9E00125A54028
:100830002A40AA427DD1674ED1F804C0ACEB06082D
:10084000B44532D014DCBCF1030F3AD009DCBCF162
:10085000000F2AD0BCF1010F1CD0BCF1020F31D126
:100860001DE0BCF1110F17D0BCF1120F2AD119E015
:10087000B8F5881F19D006DCB8F5803F15D0B8F55B
:10088000801F1FD111E0B8F5001F0ED0B8F5041F6E
:1008900018D10AE0CB6815E0CB681B1D12E0CB68CD
:1008A00008330FE0CB680C330CE08B682BB1012BC5
:1008B0004FF0080303D0456104E0042302E0056122
:1008C00000E00023FF2A01D8064601E000F10406FB
:1008D0004FEA840501D9A5F12005D6F8008007FA72
:1008E00005FC28EA0C0803FA05F548EA0508C6F8ED
:1008F00000804D68ED0062D5374DAE6946F00106C7
:10090000AE61AD6924F0030605F001050095334D95
:1009100006EB050CDCF80850A607360F07FA06F8B8
:1009200025EA0805DFF8B880404503D14FF00008FC
:1009300017E044E0DFF8AC80404502D14FF00108F9
:100940000FE0DFF8A480404502D14FF0020808E034
:10095000DFF89880404502D14FF0030801E04FF0E6
:10096000040808FA06F848EA0508CCF808804D683B
:10097000D9F80060ED024D4601D5164300E09643DC
:100980002E604D68DAF80060AD02554601D5164379
:1009900000E096432E604D68DBF80060AD035D46D5
:1009A00001D5164300E096432E604D68DEF80060E6
:1009B000ED03754601D5164300E096432E60641C96
:1009C0000D682A46E5407FF431AFBDE8F88F00009E
:1009D0000804014000001110001002400000014016
:1009E00000080140000C01400010014000140140CB
:1009F0000AB1016170470904FBE700000148806803
:100A0000704700000000002002488168027811440D
:100A10008160704700000020074810B5016841F070
:100A200010010160032000F067F80F2000F006F8C5
:100A300000F024F8002010BD0020024070B50D4DDC
:100A400004464FF47A712878B1FBF0F00A4909683E
:100A5000B1FBF0F000F0E5FC48B9102C07D2002201
:100A60002146501E00F028F800206C6070BD012067
:100A700070BD0000000000200C0000200C4808B5EC
:100A8000816941F001018161816901F001010091F9
:100A9000C16941F08051C161C06900F0805000908F
:100AA0000448416821F0E06141F00071416008BDF7
:100AB0000010024000000140F0B40E4B1B680C46D1
:100AC000C3F30223C3F10705042D00D90425191D22
:100AD000072901D2002300E0DB1E012606FA05F1FA
:100AE000491E214099409E40761E16403143F0BC7D
:100AF00001F0B8BA0CED00E0064900F00702086802
:100B00004FF6FF03184040EA0220034A10430860F2
:100B1000704700000CED00E00000FA0501490120DB
:100B20000862704700000E4210B501460020234CB9
:100B3000012922D0022939D010291DD161682268EB
:100B4000D20119D51E48C1F38342C903805C0AD57E
:100B500061681B4AC1F34041921E515C194AB2FBC5
:100B6000F1F1484301E0184948436168490203D460
:100B700040000321B0FBF1F010BD226AC2F3012155
:100B8000012903D1920701D5C80310BD022905D15F
:100B9000626A920702D549F6404010BD0329FCD194
:100BA00021688903F9D54FF2244010BD00F02AF9DD
:100BB0006168C1F38131491C4900DBE70010024044
:100BC000D029000800127A0000093D002DE9F84301
:100BD00005460078354CC00754D0E0690026C000B7
:100BE00008D4E06940F08050E061E069012600F03F
:100BF000805000902E480168C90512D401688046D3
:100C000041F480710160FFF7F9FE074605E000BF7F
:100C1000FFF7F4FEC01B642823D8D8F80000C005F5
:100C2000F6D5206A10F4407021D0A98801F44071F3
:100C300081421CD0206A1F49012220F440700A60C2
:100C400000220A602062C00711D0FFF7D7FE0746D6
:100C500041F2883808E000BFFFF7D0FEC11B4145D4
:100C600002D90320BDE8F883206A8007F4D5206A02
:100C7000696820F44070084320621EB1E06920F0EA
:100C80008050E0612878800705D56068A96820F465
:100C90004040084360602878C00605D56068E96870
:100CA00020F48000084360600020DBE70010024071
:100CB00000700040400442422DE9F0470F46050015
:100CC00061D0434E306800F00700B84209D2306866
:100CD00020F0070038433060306800F00700B84269
:100CE00051D128683B4C810712D5400703D5606875
:100CF00040F4E06060602878000703D5606840F445
:100D0000605060606068A96820F0F000084360608F
:100D10002878C00728D06868012810D021680228E8
:100D200010D0890700292EDA616821F00301014300
:100D30006160FFF763FE804641F288390DE021686B
:100D40008903EFE78901EDE7FFF758FEA0EB080103
:100D5000494502D90320BDE8F0876068696800F062
:100D60000C00B0EB810FEFD1306800F00700B84203
:100D70000BD9306820F0070038433060306800F04D
:100D80000700B84201D00120E5E72878400705D5E3
:100D90006068E96820F4E060084360602878000734
:100DA00006D56068296920F4605040EAC10060609F
:100DB00000F038F86168084AC1F30311515CC8407B
:100DC0000649086006480068FFF738FE0020C2E7C1
:100DD0000020024000100240E02900080C00002022
:100DE000040000200448054900684968044AC1F32A
:100DF0000221515CC84070470C00002000100240E6
:100E0000F02900080448054900684968044AC1F30C
:100E1000C221515CC84070470C0000200010024005
:100E2000F02900080E4A51680E4801F00C03042B0B
:100E300011D0082B0FD10C48C1F38343C903C05C08
:100E40000AD55168084AC1F34041921E515C054AD7
:100E50005043B0FBF1F0704704494843704700002D
:100E60000010024000127A00BE29000800093D006F
:100E70002DE9F84F040070D02078C04DC00749D04C
:100E80006868C0F38100012807D06868C0F381005A
:100E9000022809D16868C00306D52868800339D5BF
:100EA00060680028E7D035E06068B0F5803F0BD07F
:100EB00010B1B0F5A02F11D0286820F48030286040
:100EC000286820F4802002E0286840F48030286000
:100ED000606890B1FFF792FD06460AE0286840F48A
:100EE00080202860F0E700BFFFF788FD801B6428A2
:100EF00073D828688003F7D50CE0FFF77FFD06461E
:100F000005E000BFFFF77AFD801B6428F0D8286851
:100F10008003F7D420789A4E80074FF001094FF0F4
:100F2000000839D5686810F00C0F07D06868C0F366
:100F30008100022809D16868C00306D428688007A8
:100F400014D52069012808D110E02069B0B1C6F895
:100F50000090FFF753FD074605E00AE1FFF74EFD5D
:100F6000C01B0228C4D828688007F7D528686169A3
:100F700020F0F80040EAC10028600DE0C6F80080CB
:100F8000FFF73CFD074604E0FFF738FDC01B0228D1
:100F900023D828688007F7D4207800072CD5794813
:100FA000A169D9B1C0F80090FFF728FD074604E019
:100FB000FFF724FDC01B02280FD8686A8007F7D509
:100FC00071484FF4FA510068B0FBF1F0009000BF97
:100FD0000098411E0091FAD20EE080E0C0F8008037
:100FE000FFF70CFD074604E0FFF708FDC01B0228D1
:100FF00075D8686A8007F7D42078400760D5E8691B
:101000000027C00008D4E86940F08050E861E86932
:10101000012700F0805000905C480168C90513D496
:101020000168834641F480710160FFF7E7FC824666
:1010300006E000BFFFF7E2FCA0EB0A0064284ED8F0
:10104000DBF80000C005F5D5E06801280AD008B13A
:10105000052813D0286A20F001002862286A20F0B1
:10106000040002E0286A40F001002862E06841F2D2
:10107000883B98B1FFF7C2FC82460BE0286A40F03B
:1010800004002862EEE700BFFFF7B8FCA0EB0A01FE
:1010900059455AD8286A8007F6D50CE0FFF7AEFC10
:1010A000824605E0FFF7AAFCA0EB0A0159454CD89F
:1010B000286A8007F6D41FB1E86920F08050E86103
:1010C000E06988B36968C1F38101022944D002282C
:1010D000C6F8608004D0FFF791FC044638E034E0A5
:1010E000FFF78CFC074604E0FFF788FCC01B0228D2
:1010F0002BD828688001F7D4206AB0F5803F05D14D
:101100006868A16820F4003008436860D4E90801E9
:101110000843696821F4741108436860C6F8609058
:10112000FFF76CFC044606E025E000BFFFF766FC15
:10113000001B022809D828688001F7D51BE000BFF2
:10114000FFF75CFC001B022802D90320BDE8F88FE2
:1011500028688001F4D40EE00128F7D06868226A7C
:1011600000F48031914204D1616A00F47010884229
:1011700001D00120EAE70020E8E70000001002406B
:1011800000004242800442420C00002000700040F7
:10119000024850F8210080B270470000006C004007
:1011A000024800EB810091B201607047006C004082
:1011B00070B5040003D0607C002610B105E001206A
:1011C00070BD2674204600F03DF802206074204671
:1011D00000F00AF9042550BB204600F01EFD30BB8C
:1011E0002068416821F007014160A06820B11448DF
:1011F000016821F0010101601148001F0168A26827
:1012000021F46071114301606068411C04D1012028
:10121000FFF78AFC58B1401E2268C0F30341916079
:10122000216880B2C860204600F012FD08B16574E4
:10123000C5E7E67301206073A0736074002070BD81
:10124000306C004008B50068084988420DD1FFF7AE
:1012500065FC0748C16941F00061C161C069054989
:1012600000F0006000900120086008BD00280040E8
:10127000001002403C0442422DE9F0410D460400BA
:101280003BD0C5B3207C01283AD04FF0010884F848
:10129000108002206074E87872B300F0B5FCE0734F
:1012A000687800F0B1FC6073A87800F0ADFCA07322
:1012B000C2B2617BE07B00F037FD207328702046CE
:1012C00000F0E8FC4FF46161B0FBF1F10025182952
:1012D0002DD91822B1FBF2F1A1EB011101EB410173
:1012E000C1EB011100EBC1163146204600F094FD20
:1012F0000427C8B90BE000E004E00120BDE8F0815C
:101300000220FBE7E07368786073A878CFE7204697
:1013100000F0B9FC411C0AD0B04208D20649014491
:10132000204600F02CFD10B167742574E5E784F8C1
:10133000118025740020E1E7805101002DE9F04182
:101340000D46040024D01DB3207C012823D04FF08B
:10135000010884F81080022060742878EAB100F057
:1013600053FC4FF4616100FB01F6687800F04CFC1F
:10137000C0EB001006EB8006A87800F045FC35189D
:101380002946204600F048FD0026042710BB0FE048
:101390000120BDE8F0810220FBE74FF46161484382
:1013A0006978C1EB011100EB8100A9784518E7E7E6
:1013B0002068416821F005014160204600F063FC8F
:1013C000411C0AD0A84208D206490144204600F038
:1013D000D6FC10B167742674DAE784F8118026749D
:1013E0000020D6E78051010070B504000AD02068C3
:1013F000416821F008014160FFF700FB05464FF40A
:101400007A7608E0012070BDFFF7F8FA401BB04281
:1014100001D9032070BD206840680007F4D5002082
:1014200070BD10B5401EB0F1807F01D3012010BD0A
:101430004FF0E02460610F21601700F013FE0020E0
:10144000A06107202061002010BD70B5040004D009
:1014500094F84100002510B106E0012070BD84F829
:101460004050204600F024F8242084F841002068F1
:10147000C16821F40051C160204600F04DFD206894
:10148000016921F4904101612068416921F02A013C
:1014900041612068C16841F40051C1606564202049
:1014A00084F8410084F842006563002070BD0000AC
:1014B00030B585B000240094019402940394006830
:1014C0001449884224D11448816941F480418161E2
:1014D000816901F480410491816941F004018161D5
:1014E00080690E4D00F0040004904FF400700090ED
:1014F000022001900320039069462846FFF788F9EF
:101500002815CDE90004694628460294FFF780F9C2
:1015100005B030BD00380140001002400008014015
:101520002DE9F843044690F84100984616460D46CA
:10153000202802D00220BDE8F88385B17EB10020CA
:101540006064212084F84100FFF758FAA6848146A0
:10155000E684A0682027B0F5805F02D003E0012078
:10156000E9E7206910B12E4600250EE000260CE0C8
:101570008021204600F02CFDA8B9C6B116F8010B59
:1015800021684860E08C401EE084E08C4B464FF0C0
:101590000002CDF800800028EAD14FF0400120463B
:1015A00000F016FD40B184F841700320C3E735F820
:1015B000020BC0F30800E3E784F841700020BAE7AB
:1015C000FEE7000070B586B000241C48009401942A
:1015D00002940394816941F010018161816901F0F5
:1015E00010010491816941F020018161816901F05C
:1015F00020010491816941F004018161816901F058
:1016000004010491816941F00801816180690C4EF7
:1016100000F008004FF4407504900022294630463F
:10162000FFF7E6F901200095CDE9010402200390BF
:1016300069463046FFF7ECF806B070BD0010024076
:10164000000C014030B58DB0002429480C94274986
:101650000B940160611EC0E90114FFF7A9FD08B1F8
:10166000FFF7C2F801212248FFF792FD45F251052C
:10167000A84239D019208DF8300003208DF83100B0
:101680008DF8324001220CA91948FFF757FE08B126
:10169000FFF7AAF801208DF82C008DF82D0002200C
:1016A0008DF82E0024208DF82F0001220BA9104860
:1016B000FFF7E2FD08B1FFF797F87D2005900720BE
:1016C00004900820039014201021CDE9011000900F
:1016D0006846FEF737FD0146054800F065FB2A46DF
:1016E00001210348FFF75CFD0DB030BD002800402C
:1016F000140000200C4810B50A4901604FF4E13194
:101700004160002181600C22C160C0E90412816146
:10171000C161FFF79AFE002803D0BDE81040FFF733
:1017200063B810BD0038014028000020FEE7FEE746
:1017300010B50021074C0A46002004EBC1131A54CF
:10174000401CC0B28028FAD3491CC9B20829F3D37F
:1017500010BD000070000020F0B50B4424E00446EA
:1017600085181DE07F2C19D8002917DB3F2915DCCF
:10177000CE1701EB56764FEAE60C0D4F26F0070622
:1017800007EBCC172744A1EB060E97F800C0012603
:1017900006FA0EF62CEA060C87F800C0641C24B288
:1017A000A542DFDC491C09B28B42D8DCF0BD000049
:1017B0007000002010B500204FF47A720021491CFF
:1017C0009142FCD3401C9042F8D3012000F0E2F992
:1017D000BDE81040012000F0E5B970B500240646D0
:1017E000802525FA04F0304000D0012000F0DAF91D
:1017F000012000F0CFF9002000F0CCF9641CE4B225
:10180000082CEED3012000F0C5F9BDE8704000209F
:1018100000F0C0B910B5012000F0C4F9012000F0BB
:10182000B9F9002000F0BEF9BDE81040002000F03A
:10183000B1B910B5002000F0B5F9012000F0AAF907
:10184000BDE81040012000F0ADB910B5FFF7B2FFC0
:10185000AE2000F0AFF9D52000F0ACF9802000F008
:10186000A9F9A82000F0A6F93F2000F0A3F9D320A1
:1018700000F0A0F9002000F09DF9402000F09AF956
:10188000A12000F097F9C82000F094F9DA2000F0C8
:1018900091F9122000F08EF9812000F08BF9CF2011
:1018A00000F088F9D92000F085F9F12000F082F9E4
:1018B000DB2000F07FF9302000F07CF9A42000F05C
:1018C00079F9A62000F076F98D2000F073F9142044
:1018D00000F070F9AF2000F06DF9FFF729FFBDE8C7
:1018E000104000F043B910B50C4640F0B00000F0D5
:1018F00061F9102040EA141000F05CF904F00F00C8
:10190000BDE8104000F056B908B5082B0DD0062BE5
:101910000AD10A4B02EB420203EB4202C03A0092A8
:101920000823062200F00EF808BD054B03EB021257
:10193000A2F50072102300920822F3E7E82F0008B6
:10194000F82900082DE9F04F1F4616460D4682463D
:101950000024FFF701FF7F1EF81707EB50700121ED
:10196000DFF898B001EBE00743E000203DE000BF66
:101970000AEB00037F2B36D8E91705EB5171CA102B
:1019800021F00701691A002D03DA521E083112B244
:1019900009B202EB0409B9F1070F0ED8099A04FB4A
:1019A00006F802440BEBC91E18F802201EF803C00B
:1019B0008A404CEA020C0EF803C009F10102072A22
:1019C00011D80BEBC91202EB0308099A04FB06FCC1
:1019D000024498F880301CF80220C1F10801CA4086
:1019E000134388F88030401CC0B2B042C0D3641C9E
:1019F000E4B2A742B9DCBDE8F08F0000700000201F
:101A00002DE9FF4F002483B09B4690462546A24611
:101A1000DFF850919EE0100610D403988DF8042052
:101A2000641C2844A4B28DF805A000B25B4604995A
:101A3000FFF76AFF05EB0B0085B28BE00620B0EBE9
:101A4000521F0ED1641CA0B28DF8042018F80010AB
:101A5000002974D08DF80510401C84B28DF806A0C2
:101A60003CE00E20B0EB121F16D1641CA0B28DF822
:101A7000042018F80010002971D0401C80B28DF8A5
:101A8000051018F80010002969D08DF80610401CC8
:101A900084B28DF807A021E01E20B0EBD20F1FD139
:101AA000641CA0B28DF8042018F80010002956D04C
:101AB000401C80B28DF8051018F8001000294ED097
:101AC000401C80B28DF8061018F80010002946D08E
:101AD000401C8DF8071084B28DF808A0002609E09C
:101AE000641CA4B236E0384601A9FEF791FB68B148
:101AF000761CB6B206EB860000EB461101EB09003E
:101B0000074619A1FEF784FB0028ECD1BBF1080FB2
:101B100003D0BBF1060F1DD112E006EB860000EBEF
:101B2000461101EB0900401D009003981023284442
:101B300000B21A460499FFF705FF103509E00EE0E0
:101B400003980623284400B23F220499FFF7DCFEE5
:101B5000AD1DADB218F80420002A7FF45CAF07B0C9
:101B6000BDE8F08F223200080000000070B5084D7B
:101B7000002400212046FFF7B6FE05EBC4108021AB
:101B800000F029F8641CE4B2082CF2D370BD000008
:101B90007000002002464FF480710148FEF728BF14
:101BA000000C014002464FF400710148FEF720BFCF
:101BB000000C014010B50446FFF72CFE7820FFF71B
:101BC0000CFE0020FFF709FE2046FFF706FEBDE8E9
:101BD0001040FFF72EBE70B50D460646FFF71AFE01
:101BE0007820FFF7FAFD4020FFF7F7FD002404E01E
:101BF000305DFFF7F2FD641CE4B2AC42F8D3BDE8FF
:101C00007040FFF716BE7047010901EB810100F03B
:101C10000F0000EB4100C0B2704770B50446FEF7FC
:101C2000EDFE05464FF47A7606E0FEF7E7FE401B30
:101C3000B04201D9032070BD206840688006F4D509
:101C40002068416841F010014160002070BD000033
:101C500070B504460068416821F010014160FEF74C
:101C6000CDFE05464FF47A7607E000BFFEF7C6FECC
:101C7000401BB04201D9032070BD20684068800637
:101C8000F4D5002070BD0168086A496A89B241EA4A
:101C900000407047006881698AB2C1698BB281696E
:101CA00089B28A4203D0C06961F31F40704743EA9A
:101CB0000240704710B5154886B0006881698AB245
:101CC000C1698BB2816989B28A4203D0C06961F36C
:101CD0001F4001E043EA0240049004A8FEF7AEFC76
:101CE00090E81E00CDE90221CDE90043D0E904329D
:101CF00007A002F26C725B1C049900F0A3F94FF488
:101D00007A70FEF773FD06B010BD000014000020CD
:101D100025753A25642D25642D25642025643A25F2
:101D2000643A25640A000000F0B56424C1EBC103E5
:101D30000927A500072603EB01130329B3FBF7F1DD
:101D400000F5FA60114401440AD2401EB0FBF4F2DF
:101D500001EB9001B0FBF5F0891A0844001D08E082
:101D6000B0FBF4F201EB9001B0FBF5F0891A0844E6
:101D7000801CB0FBF6F106FB1100C0B2F0BD70B5DF
:101D80000D4606460024FFF748FF48B93168280C85
:101D900008623168A8B248623046FFF759FF00B1C7
:101DA0000124204670BD00002DE9F0410F46044695
:101DB0000025FEF723FE06464FF47A7805E000BFC3
:101DC000FEF71CFE801B40451DD820684068800639
:101DD000F6D52068416841F0100141602168380C57
:101DE00088612168B8B2C8612068416821F010019B
:101DF0004160FEF703FE0646474606E0FEF7FEFD9D
:101E0000801BB84201D9012503E0206840688006A4
:101E1000F4D52846BDE8F08170B50D46064600248D
:101E2000FFF7FBFE48B93168280C88613168A8B219
:101E3000C8613046FFF70CFF00B10124204670BD99
:101E40007047FEF7E1BD70B594B028216846FEF7F3
:101E5000D4F914210AA8FEF7D0F9002501240F9522
:101E60001195052012950090CDE9025410954FF47C
:101E70008030019002260494CDE907604FF4E01011
:101E800009906846FEF7F4FF08B172B6FEE70F202E
:101E9000CDE90A064FF48060CDE90C5002210AA872
:101EA0000E95FEF709FF08B172B6FEE74FF4807099
:101EB000CDE90F400FA8FEF789FE002801D072B6C9
:101EC000FEE714B070BD704701680C3151E8002F77
:101ED00022F4907241E80023002BF5D101681431FF
:101EE00051E8002F22F0010241E80023002BF5D138
:101EF000016B012909D101680C3151E8002F22F052
:101F0000100241E80023002BF5D1202180F8421077
:101F1000002101637047000070B504460068016944
:101F2000E26821F44051114301612169A06808432E
:101F3000616908432168CA6841F20C639A4302430D
:101F4000CA6020684169A26921F44071114341616E
:101F50001E492068884202D1FEF754FF01E0FEF7D7
:101F600041FF00EBC00101EB0012606864218000BA
:101F7000B2FBF0F3B3FBF1F36FF018067343B2FB5F
:101F8000F0F5B2FBF0F605EB8305322303EB051504
:101F9000B5FBF1F5B6FBF1F605F0F00505EB06151E
:101FA000B2FBF0F6B2FBF0F0B0FBF1F06FF018020C
:101FB000504306EB800003EB0010B0FBF1F021680A
:101FC00000F00F002844886070BD00000038014018
:101FD0002DE9F843984617460D460446089E24E02E
:101FE000701C22D0FEF70AFDA0EB0800B0421AD800
:101FF000CEB12068C168490717D5802D15D0402D76
:1020000013D00168C94309070FD40168002540684F
:1020100000902046FFF758FF0820606484F8405085
:102020000120BDE8F8830320FBE72068006835EA5B
:10203000000004D00020B842D2D00020F1E70120F7
:10204000F9E7FEE70FB4054B10B503A9044A02985F
:1020500000F0EAF810BC5DF814FB000059290008F4
:10206000100000200907090E002804DB00F1E02021
:1020700080F80014704700F00F0000F1E02080F8B5
:10208000141D704702E008C8121F08C1002AFAD1C7
:1020900070477047002001E001C1121F002AFBD1E8
:1020A000704700002DE9FF5F82B00021DDE90430B8
:1020B000020DDDF840B0034318D044F61050A2F2F0
:1020C000FF3242431514119801281FD0A5EB0B00D5
:1020D000401C5FEA000A4FF000064E4FDFF83891CF
:1020E000B046504615D5CAF1000413E011980124FA
:1020F0004AA3012801D16FEA0B010298119AC0E9A5
:102100000031C0E9024206B0BDE8F09FCBF100000B
:10211000DFE704460021404A491842EB0450CDE96C
:10212000001012E0E00707D032463B4640464946E1
:10213000FEF723F98046894632463B46104619464B
:10214000FEF71BF906460F466410002CEAD1DDE9C4
:102150000401DDE90023BAF1000F06DAFEF70DF9FC
:1021600042464B46FEF709F905E0FEF778F942468C
:102170004B46FEF774F904460E460022284BFEF744
:10218000DDF903D84FF0FF30014607E00022254B70
:1021900020463146FEF74AF8FEF7F9FA102409E026
:1021A000002C0ADB0A220023FEF7F6F9039B3032EB
:1021B0001A55641E50EA0102F2D1641C039AC4F15C
:1021C00011031444119A012A03D0012208430DD1AE
:1021D0000AE0084304D000204FF0110B119072E781
:1021E000A3EB0B056D1E0DE05B4504DD4FF0000217
:1021F00005F1010504E003DA4FF00002A5F1010545
:10220000002AECD002981199C0E90231C0E90045DA
:1022100079E70000000014400000F03F30000000AB
:102220000000F0430000E03F2DE9FF4F95B09B46D2
:102230008946064600250FE2252877D10024274647
:10224000F84A0121059400E0044316F8013F203BC1
:1022500001FA03F01042F7D130782A2811D06FF03C
:102260002F033078A0F13002092A16D8059A44F0DD
:10227000020402EB820203EB42021044761C05903A
:10228000EFE759F8042B0592002A03DA504244F490
:102290000054059044F00204761C30782E2816D1A4
:1022A00016F8010F44F004042A280DD06FF02F0215
:1022B0003078A0F13003092B09D807EB870302EB34
:1022C0004303C718761CF3E759F8047B761C307873
:1022D0006C280FD006DC4C2817D068280DD06A284F
:1022E00014D104E0742810D07A280FD10DE044F402
:1022F00000140AE044F4801401E044F440147278BD
:10230000824202D104F58014761C761C307866284F
:102310000BD013DC582877D009DC002875D045286D
:10232000F6D04628F4D047281AD19DE118E063285A
:1023300035D0642879D0652812D195E1702873D002
:1023400008DC6728F1D069286FD06E280DD06F287F
:1023500006D1B5E073282CD0752875D0782874D0B4
:102360005A46179990476D1C75E1C4F30250022834
:1023700009D003280DD0D9F8001004280DD00D6025
:1023800009F1040967E1D9F80010EA17C1E9005220
:10239000F6E7D9F800100D80F2E70D70F0E719F8B4
:1023A000041B8DF8001000208DF80100EA46012082
:1023B00003E059F804AB4FF0FF3061074FF0000124
:1023C00002D40DE008F101018846B9420FDA8045D8
:1023D000F8DB1AF808100029F4D108E008F101012F
:1023E00088468142FADB1AF808100029F6D10598D0
:1023F0005B46A0EB080721463846179A00F094FA8E
:10240000284400EB080507E04DE029E10DE01AF84B
:10241000010B5A4617999047B8F10108F7D25B466D
:1024200021463846179A13E142E00A220092C4F38B
:1024300002524FF0000A022A08D059F804CB032AAE
:102440004FEAEC710AD00DE029E02AE009F107011A
:1024500021F00702F2E802C1914609E00FFA8CFC74
:102460004FEAEC71042A03D14FFA8CFC4FEAEC716D
:10247000002907DA0A460021DCF1000C61EB0201B9
:102480002D2202E0220504D52B228DF80420012202
:1024900003E0E20701D02022F7E7904659E00A2145
:1024A00002E010220DE010214FF0000A00910BE035
:1024B00010224FF0000A44F004040827009203E0C1
:1024C00008224FF0000A0092C4F30252022A05D0FB
:1024D00059F804CB0021032A08D009E009F10701CB
:1024E00021F00702F2E802C1914605E01FFA8CFCD8
:1024F000042A01D10CF0FF0C4FF00008220728D568
:10250000702806D0009B83F0100353EA0A0305D01D
:102510000EE040228DF80420012208E05CEA01026E
:1025200006D030228DF804208DF805000222904656
:10253000009B83F0080353EA0A030AD15CEA010214
:1025400001D1620705D530228DF804204FF0010833
:102550007F1E582804D034A003900EA802900DE0EE
:1025600036A0F9E753466046009AFEF715F8844610
:102570000398825C0298401E029002705CEA01009F
:10258000F0D1029806A9081A00F1200A600702D5C6
:1025900024F4803400E00127574502DDA7EB0A0050
:1025A00000E0002000EB0A01009005984144401A29
:1025B0000590E00306D45B462146179A059800F083
:1025C000B3F90544002706E001A85A46C05D1799F3
:1025D00090476D1C7F1C4745F6DBE0030CD55B463E
:1025E0002146179A059800F09FF9054404E0302031
:1025F0005A46179990476D1C0099481E0090002973
:10260000F5DC08E0029802995A460078491C0291CC
:10261000179990476D1CBAF10001AAF1010AF1DC8B
:1026200065E1000009280100303132333435363796
:10263000383961626364656600000000303132330E
:1026400034353637383941424344454600000000AE
:1026500000F058F90544761C307800287FF4ECAD82
:1026600019B02846BDE8F08F620700D4062709F1AB
:10267000070222F0070CFCE80223E14603F00048C1
:102680005FEA080C02D00FF2702C0DE05FEA045CE8
:1026900002D50FF2682C07E05FEAC47C02D00FF28B
:1026A000602C01E0AFF2700C4FF0FF3823F00043D4
:1026B000CDF850C065280CD006DC452809D0462846
:1026C0001DD047283DD13DE0662818D067287ED12F
:1026D00038E00021112F01DB112000E0781CCDE94A
:1026E000000106A90EA8FFF7DDFCDDE90F010E9A37
:1026F00003910021009207F1010A04914DE04FF08F
:1027000000400097CDE9011006A90EA8FFF7CAFC0A
:10271000DDE90F0203920E9B11990022DDF80CA057
:102720000093049211B9791C00EB010AB7EB0A007F
:1027300004D4C0F1FF3007F1010A0490AAEB0700AE
:10274000019044E0012F00DA01270021112F01DD63
:10275000112000E03846CDE9000106A90EA8FFF7D8
:10276000A1FCDDE90F010E9A039100210491009272
:10277000BA4621070CD40399514500DA8A46BAF1CA
:10278000010F05DD009AAAF10101515C302908D042
:10279000B84202DA10F1040F06DA0121CDE9011086
:1027A00015E0AAF10101E9E7002805DC04990144DC
:1027B0000491AAEB000102E0411C514500DD8A466C
:1027C0000499401A401C01904FF0004002902007ED
:1027D00004D40198504501DBCDF8048000208DF829
:1027E0004F0002980DF14F07B0F1004F25D02B207C
:1027F0000E9002984FF0020800280CDA4042029036
:102800002D200E9007E00A210298FDF7AFFE30312F
:10281000029007F8011DB8F10001A8F10108F2DCEF
:1028200002980028EFD1791E0E980870307800F0D9
:10283000200040F0450007F8020D12A8C01B00F16F
:1028400007081498007800B1012000EB0A010198F4
:1028500001EBE07105984144401A401E0590E003E9
:1028600006D45B462146179A059800F05DF80544AA
:102870001498007818B15A46179990476D1CE003D8
:1028800024D55B462146179A059800F04DF805447B
:102890001CE00498002807DBDDE90301884203DD22
:1028A0000098405C179901E0179930205A469047EC
:1028B000049805F10105401C04900198401E019008
:1028C00004D12E205A46179990476D1CBAF1000189
:1028D000AAF1010ADDDC05E017F8010B5A46179949
:1028E00090476D1CB8F10001A8F10108F4DC5B46CB
:1028F0002146179A0598ABE62D0000002B0000003A
:10290000200000002DE9F041044600251E46174630
:10291000880404D405E039462020B0476D1C641EAD
:10292000F9D52846BDE8F0812DE9F041044600259F
:102930001E469046C80301D5302700E020278804B2
:1029400004D505E041463846B0476D1C641EF9D5F4
:102950002846BDE8F081000013B54FF6FF73012251
:1029600069460248FEF7DCFD00981CBD28000020E7
:10297000FEF752F8FEF769FFFFF765FAFEF722FE51
:10298000FEF760FEFEF7B6FE0021082306A2084609
:10299000FFF736F806A0FFF755FBFFF7E7F800BF93
:1029A000FFF788F9FCE7000054494D65000000007E
:1029B0006D6177656E62696E0000000001020203BE
:1029C0000405060708090A0B0C0D0E0F1010010272
:1029D00002030405060708090A0B0C0D0E0F101060
:1029E00000000000000000000102030406070809BF
:1029F00000000000010203040000000000000000CD
:102A00000000000000000000000000F800000000CE
:102A1000000000333000000000160E00160E00000B
:102A2000000000000000000040C07840C078400076
:102A3000043F04043F040400007088FC08300000D8
:102A4000001820FF211E0000F008F000E018000030
:102A500000211C031E211E0000F0088870000000E9
:102A60001E21232419272110000000160E0000004B
:102A70000000000000000000000000E01804020058
:102A8000000000071820400000020418E0000000C9
:102A90000040201807000000404080F080404000C7
:102AA0000202010F01020200000000F0000000001D
:102AB0000101011F010101000000000000000000F1
:102AC00000B07000000000000000000000000000E6
:102AD00000010101010101010000000000000000EF
:102AE000003030000000000000000000806018048A
:102AF000006018060100000000E010080810E00067
:102B0000000F102020100F00001010F8000000002F
:102B10000020203F20200000007008080888700076
:102B200000302824222130000030088888483000F6
:102B30000018202020110E000000C02010F8000016
:102B400000070424243F240000F8088888080800AF
:102B50000019212020110E0000E0108888180000C4
:102B6000000F112020110E0000380808C838080096
:102B70000000003F00000000007088080888700016
:102B8000001C222121221C0000E010080810E00097
:102B90000000312222110F00000000C0C000000020
:102BA0000000003030000000000000C0C000000045
:102BB000000080B07000000000008040201008007D
:102BC0000001020408102000404040404040400006
:102BD00004040404040404000008102040800000E1
:102BE0000020100804020100007048080808F000E6
:102BF0000000003036010000C030C828E810E000B6
:102C00000718272423140B000000C038E000000040
:102C1000203C23020227382008F8888888700000AA
:102C2000203F202020110E00C0300808080838007E
:102C3000071820202010080008F808080810E000F5
:102C4000203F202020100F0008F88888E808100096
:102C5000203F20202320180008F88888E80810006A
:102C6000203F200003000000C030080808380000A2
:102C700007182020221E020008F808000008F808A3
:102C8000203F210101213F20000808F8080800002A
:102C90000020203F2020000000000808F80808005D
:102CA000C08080807F00000008F888C028180800D5
:102CB000203F20012638200008F80800000000000E
:102CC000203F20202020300008F8F800F8F8080005
:102CD000203F003F003F200008F830C00008F808FF
:102CE000203F200007183F00E01008080810E0000F
:102CF0000F10202020100F0008F808080808F00026
:102D0000203F210101010000E01008080810E00048
:102D10000F18242438504F0008F8888888887000DD
:102D2000203F2000030C302000708808080838007D
:102D30000038202121221C00180808F80808180073
:102D40000000203F2000000008F808000008F808F4
:102D5000001F202020201F000878880000C83808A5
:102D6000000007380E010000F80800F80008F8001D
:102D7000033C0700073C03000818688080681808B7
:102D800020302C03032C30200838C800C838080035
:102D90000000203F2000000010080808C838080084
:102DA0002038262120201800000000FE0202020028
:102DB0000000007F40404000000C30C000000000D8
:102DC000000000010638C00000020202FE00000000
:102DD000004040407F000000002010080408102040
:102DE00000000000000000000000000000000000E3
:102DF00080808080808080800002040800000000C5
:102E000000000000000000000000808080800000C2
:102E10000019242222223F2008F8008080000000B0
:102E2000003F112020110E00000000808080000073
:102E3000000E112020201100000000808088F80082
:102E4000000E112020103F200000808080800000B4
:102E5000001F222222221300008080F08888881818
:102E60000020203F20200000000080808080800023
:102E7000006B94949493600008F8008080800000B8
:102E8000203F210000203F20008098980000000093
:102E90000020203F202000000000008098980000C3
:102EA00000C08080807F000008F8000080808000E3
:102EB000203F24022D302000000808F80000000008
:102EC0000020203F202000008080808080808000C3
:102ED000203F20003F20003F0080800080800000D5
:102EE00000203F2100203F200000808080800000E3
:102EF000001F202020201F00808000808000000014
:102F000080FFA12020110E00000000808080800042
:102F1000000E112020A0FF80808080008080800033
:102F200020203F2120000100000080808080800060
:102F30000033242424241900008080E080800000D5
:102F40000000001F20200000808000000080800022
:102F5000001F202020103F20808080000080808083
:102F600000010E3008060100808000800080808013
:102F70000F300C030C300F00008080008080800038
:102F80000020312E0E312000808080000080808063
:102F900080818E7018060100008080808080800013
:102FA0000021302C2221300000000000807C020231
:102FB00000000000003F404000000000FF00000053
:102FC00000000000FF0000000002027C8000000002
:102FD0000040403F00000000008040408000008032
:102FE00000000000000101000000000000000000DF
:102FF000002F000000000700070000147F147F145A
:1030000000242A7F2A1200231308646200364955DF
:10301000225000000007000000001C2241000000B8
:1030200041221C000014083E08140008083E08084D
:10303000000000A0600000080808080800006060A8
:103040000000002010080402003E5149453E0000E7
:10305000427F4000004261514946002141454B31C9
:10306000001814127F10002745454539003C4A4995
:103070004930000171090503003649494936000607
:103080004949291E0000363600000000563600006F
:1030900000081422410000141414141400004122EA
:1030A0001408000201510906003E4955592E007CC2
:1030B0001211127C007F49494936003E41414122AC
:1030C000007F4141221C007F49494941007F090995
:1030D0000901003E4149497A007F0808087F000045
:1030E000417F4100002040413F01007F0814224100
:1030F000007F40404040007F020C027F007F0408B8
:10310000107F003E4141413E007F09090906003E13
:103110004151215E007F091929460046494949313C
:103120000001017F0101003F4040403F001F20405F
:10313000201F003F4038403F00631408146300071D
:103140000870080700615149454300007F41410074
:10315000000204081020000041417F000004020129
:1031600002040040404040400000010204000020F2
:1031700054545478007F4844443800384444442030
:1031800000384444487F00385454541800087E09DD
:1031900001020018A4A4A47C007F080404780000A5
:1031A000447D4000004080847D00007F1028440062
:1031B0000000417F4000007C04180478007C080473
:1031C000047800384444443800FC242424180018AF
:1031D000242418FC007C080404080048545454209B
:1031E00000043F444020003C4040207C001C204024
:1031F000201C003C4030403C004428102844001C67
:10320000A0A0A07C004464544C440000087F41000E
:103210000000007F00000000417F08000008040853
:103220001008EFBC8C00000000000000000000004F
:1032300000000000000000000058380000000000FE
:1032400000000000000000E3808200000000000099
:103250000000000000000000000000000000182432
:10326000241800000000000000000000E4BDA000E1
:1032700000008060F8074020180F08C808082818C8
:1032800000010000FF00100C0340807F00010618C1
:1032900000E5A5BD00001010F01F10F00080828234
:1032A000E2928A8680004022150816610000408064
:1032B0007F0000000000E4B8960000202020FE20DF
:1032C00020FF202020FF20202020000000007F4041
:1032D0004047444444474040400000E7958C00008C
:1032E000000000FE929292FE929292FE0000000078
:1032F00008080484621E010001FE0204040808009C
:10330000E9A9AC0000000202F2828282828282FE7F
:103310008080800000080808080808080808084895
:1033200080403F0000E69687000008080838C8087B
:10333000090E0808C838080808008080404020119D
:103340000A040A11204040808000E5BDAC00001056
:1033500010D0FF90001090FF9000100884630004CC
:103360000300FF00090601FF00814221100C00004C
:1033700000000000FF0101013109090909897101FB
:10338000010101FFFF8080808080809681808080A5
:10339000808080FF1F1C1F1E1F1E1F1F1E1F1E1F41
:1033A0001F1D1F1E1F1E1F1F1E1F1E1FCC330008A8
:1033B000000000201400000084200008E033000812
:1033C000140000208C080000942000080100000078
:1033D000100000000000000000127A000000000051
:04000005080000ED02
:00000001FF
