:020000040800F2
:100000001807002089010008FB100008550F0008A0
:10001000F91000088F020008A71300080000000074
:10002000000000000000000000000000FF100008B9
:100030009102000800000000FD10000801110008F6
:10004000A3010008A3010008A3010008A301000800
:10005000A3010008A3010008A3010008A3010008F0
:10006000A3010008A3010008A3010008A3010008E0
:10007000A3010008A3010008A3010008A3010008D0
:10008000A3010008A3010008A3010008A3010008C0
:10009000A3010008A3010008A3010008B902000899
:1000A000A3010008A3010008A3010008A3010008A0
:1000B000A3010008A3010008A3010008A301000890
:1000C000A3010008A3010008A3010008A301000880
:1000D000A3010008A3010008A3010008A301000870
:1000E00093020008A3010008A301000800F002F831
:1000F00000F03AF80AA090E8000C82448344AAF188
:100100000107DA4501D100F02FF8AFF2090EBAE885
:100110000F0013F0010F18BFFB1A43F0010318473B
:100120000413000024130000103A24BF78C878C1DB
:10013000FAD8520724BF30C830C144BF04680C60ED
:10014000704700000023002400250026103A28BF35
:1001500078C1FBD8520728BF30C148BF0B60704739
:100160001FB51FBD10B510BD00F058F81146FFF7C0
:10017000F7FF01F029F900F076F803B4FFF7F2FF7A
:1001800003BC00F07DF8000009488047094800479B
:10019000FEE7FEE7FEE7FEE7FEE7FEE7FEE7FEE737
:1001A000FEE7FEE704480549054A064B7047000094
:1001B00063110008ED000008180100201807002056
:1001C00018030020180300204FF0000200B513466A
:1001D00094469646203922BFA0E80C50A0E80C5067
:1001E000B1F12001BFF4F7AF090728BFA0E80C5018
:1001F00048BF0CC05DF804EB890028BF40F8042B11
:1002000008BF704748BF20F8022B11F0804F18BF7D
:1002100000F8012B7047704770477047754600F033
:100220002BF8AE4605006946534620F00700854688
:1002300018B020B5FFF7B6FFBDE820404FF000062C
:100240004FF000074FF000084FF0000B21F00701BE
:10025000AC46ACE8C009ACE8C009ACE8C009ACE801
:10026000C0098D46704710B50446AFF300802046A4
:10027000BDE81040FFF781BF00487047B80000207C
:1002800001491820ABBEFEE7260002007047FEE7DA
:10029000704710B54FF4805000F064F84FF40050F0
:1002A00000F060F84FF4804000F05CF8BDE81040CA
:1002B0004FF4004000F056B810B5202000F052F87E
:1002C000BDE810404FF4807000F04CB872B6FEE705
:1002D00010B5044600F048F92049214AB4F5005F02
:1002E00014D0B4F5804F18D0202C21D0B4F5004F95
:1002F00025D0B4F5805F29D0B4F5807F17D153693C
:10030000C31A322B13D3506164200CE01368C31A54
:10031000322B0CD31060002005E05368C31A322B37
:1003200005D3506014200A68D0630968086410BDC2
:100330009368C31A322BFAD390602820F3E7D3686E
:10034000C31A322BF3D3D0603C20ECE71369C31AF5
:10035000322BECD310615020E5E700007000002044
:1003600000000020044910B50A68024202D008606B
:10037000FFF7AEFF10BD0000140401402DE9F84F57
:10038000DFF8B8910024A9F1040B23460F2709F1E7
:10039000040AABF1040EC9E00125A5402A40AA4297
:1003A0007DD1674ED1F804C0ACEB0608B44532D01D
:1003B00014DCBCF1030F3AD009DCBCF1000F2AD0E9
:1003C000BCF1010F1CD0BCF1020F31D11DE0BCF11A
:1003D000110F17D0BCF1120F2AD119E0B8F5881F00
:1003E00019D006DCB8F5803F15D0B8F5801F1FD1B5
:1003F00011E0B8F5001F0ED0B8F5041F18D10AE0BF
:10040000CB6815E0CB681B1D12E0CB6808330FE00A
:10041000CB680C330CE08B682BB1012B4FF0080339
:1004200003D0456104E0042302E0056100E00023FD
:10043000FF2A01D8064601E000F104064FEA8405D0
:1004400001D9A5F12005D6F8008007FA05FC28EAB5
:100450000C0803FA05F548EA0508C6F800804D685F
:10046000ED0062D5374DAE6946F00106AE61AD696B
:1004700024F0030605F001050095334D06EB050C4D
:10048000DCF80850A607360F07FA06F825EA080533
:10049000DFF8B880404503D14FF0000817E044E092
:1004A000DFF8AC80404502D14FF001080FE0DFF8E3
:1004B000A480404502D14FF0020808E0DFF89880A0
:1004C000404502D14FF0030801E04FF0040808FA5C
:1004D00006F848EA0508CCF808804D68D9F80060AD
:1004E000ED024D4601D5164300E096432E604D685F
:1004F000DAF80060AD02554601D5164300E0964398
:100500002E604D68DBF80060AD035D4601D51643F3
:1005100000E096432E604D68DEF80060ED037546FE
:1005200001D5164300E096432E60641C0D682A46F0
:10053000E5407FF431AFBDE8F88F000008040140CA
:1005400000001110001002400000014000080140AE
:10055000000C014000100140001401400AB101618B
:1005600070470904FBE700000148806870470000FD
:1005700018000020024881680278114481607047A9
:1005800018000020074810B5016841F01001016013
:10059000032000F06DF80F2000F006F800F024F8BA
:1005A000002010BD0020024070B50D4D04464FF4F0
:1005B0007A712878B1FBF0F00A490968B1FBF0F0D4
:1005C00000F0B4FA48B9102C07D200222146501E80
:1005D00000F02EF800206C6070BD012070BD00009E
:1005E0001800002024000020094808B5816941F066
:1005F00001018161816901F001010091C16941F04E
:100600008051C161C06900F08050009008BD0000B9
:1006100000100240002809DB00F01F020121914078
:100620004009800000F1E020C0F800117047000090
:10063000F0B40E4B1B680C46C3F30223C3F107054D
:10064000042D00D90425191D072901D2002300E03B
:10065000DB1E012606FA05F1491E214099409E4005
:10066000761E16403143F0BC00F09EBE0CED00E05B
:10067000064900F0070208684FF6FF03184040EAF9
:100680000220034A10430860704700000CED00E0B0
:100690000000FA052DE9F0470F46050061D0434EF2
:1006A000306800F00700B84209D2306820F0070037
:1006B00038433060306800F00700B84251D12868F4
:1006C0003B4C810712D5400703D5606840F4E060D9
:1006D00060602878000703D5606840F4605060606F
:1006E0006068A96820F0F000084360602878C007BF
:1006F00028D06868012810D02168022810D0890706
:1007000000292EDA616821F0030101436160FFF7DF
:100710002BFF804641F288390DE021688903EFE71D
:100720008901EDE7FFF720FFA0EB0801494502D959
:100730000320BDE8F0876068696800F00C00B0EB4A
:10074000810FEFD1306800F00700B8420BD9306854
:1007500020F0070038433060306800F00700B842EE
:1007600001D00120E5E72878400705D56068E968F1
:1007700020F4E060084360602878000706D56068D0
:10078000296920F4605040EAC100606000F018F868
:100790006168084AC1F30311515CC840064908600A
:1007A00006480068FFF700FF0020C2E70020024073
:1007B0000010024012140008240000201C00002039
:1007C0000E4A51680E4801F00C03042B11D0082B7F
:1007D0000FD10C48C1F38343C903C05C0AD55168EB
:1007E000084AC1F34041921E515C054A5043B0FB98
:1007F000F1F0704704494843704700000010024080
:1008000000127A000214000800093D002DE9F84F9B
:10081000040070D02078C04DC00749D06868C0F38C
:100820008100012807D06868C0F38100022809D13F
:100830006868C00306D52868800339D56068002839
:10084000E7D035E06068B0F5803F0BD010B1B0F56F
:10085000A02F11D0286820F480302860286820F468
:10086000802002E0286840F480302860606890B101
:10087000FFF77AFE06460AE0286840F480202860E8
:10088000F0E700BFFFF770FE801B642873D828686C
:100890008003F7D50CE0FFF767FE064605E000BFD2
:1008A000FFF762FE801B6428F0D828688003F7D425
:1008B00020789A4E80074FF001094FF0000839D593
:1008C000686810F00C0F07D06868C0F38100022838
:1008D00009D16868C00306D42868800714D5206948
:1008E000012808D110E02069B0B1C6F80090FFF7E8
:1008F0003BFE074605E00AE1FFF736FEC01B022873
:10090000C4D828688007F7D52868616920F0F80006
:1009100040EAC10028600DE0C6F80080FFF724FE21
:10092000074604E0FFF720FEC01B022823D82868F2
:100930008007F7D4207800072CD57948A169D9B170
:10094000C0F80090FFF710FE074604E0FFF70CFE2A
:10095000C01B02280FD8686A8007F7D571484FF48A
:10096000FA510068B0FBF1F0009000BF0098411E02
:100970000091FAD20EE080E0C0F80080FFF7F4FDAD
:10098000074604E0FFF7F0FDC01B022875D8686A2F
:100990008007F7D42078400760D5E8690027C000B9
:1009A00008D4E86940F08050E861E869012700F068
:1009B000805000905C480168C90513D401688346E3
:1009C00041F480710160FFF7CFFD824606E000BF71
:1009D000FFF7CAFDA0EB0A0064284ED8DBF8000040
:1009E000C005F5D5E06801280AD008B1052813D064
:1009F000286A20F001002862286A20F0040002E042
:100A0000286A40F001002862E06841F2883B98B112
:100A1000FFF7AAFD82460BE0286A40F00400286236
:100A2000EEE700BFFFF7A0FDA0EB0A0159455AD839
:100A3000286A8007F6D50CE0FFF796FD824605E0B0
:100A4000FFF792FDA0EB0A0159454CD8286A8007B0
:100A5000F6D41FB1E86920F08050E861E06988B3FE
:100A60006968C1F38101022944D00228C6F8608078
:100A700004D0FFF779FD044638E034E0FFF774FD59
:100A8000074604E0FFF770FDC01B02282BD828683A
:100A90008001F7D4206AB0F5803F05D16868A1686D
:100AA00020F4003008436860D4E90801084369680D
:100AB00021F4741108436860C6F86090FFF754FD94
:100AC000044606E025E000BFFFF74EFD001B0228AC
:100AD00009D828688001F7D51BE000BFFFF744FD67
:100AE000001B022802D90320BDE8F88F2868800186
:100AF000F4D40EE00128F7D06868226A00F480314F
:100B0000914204D1616A00F47010884201D0012042
:100B1000EAE70020E8E7000000100240000042423F
:100B200080044242240000200070004010B5401EA6
:100B3000B0F1807F01D3012010BD4FF0E02460614F
:100B40000F21601700F030FC0020A0610720206119
:100B5000002010BD70B590F83C20012A26D0012459
:100B600080F83C40022280F83D2003685A689D6866
:100B700022F070060A6832435A600D4B02689A42AE
:100B800008D0B2F1804F05D00A4B9A4202D00A4BEE
:100B90009A4204D1496825F080031943916080F896
:100BA0003D40002180F83C10084670BD022070BD19
:100BB000002C0140000400400008004010B5040073
:100BC00003D094F83D0010B107E0012010BD0020D3
:100BD00084F83C00204600F01FF8022084F83D0015
:100BE000211D206800F0BEFA012084F8460084F838
:100BF0003E0084F83F0084F8400084F8410084F807
:100C0000420084F8430084F8440084F8450084F8E6
:100C10003D00002010BD000008B50068064988426C
:100C200008D10648C16941F00201C161C06900F004
:100C30000200009008BD00000004004000100240C7
:100C400070B5044690F83C000025012817D0012615
:100C500084F83C60022084F83D002068826822F01D
:100C6000770222F47F4282600868502838D00DDC79
:100C700020284FD005DC90B3102811D14AE0022083
:100C800070BD302846D040280AD13BE060282FD0E4
:100C900070280DD0B0F5805F03D0B0F5005F12D0A2
:100CA000012584F83D60002084F83C00284670BD92
:100CB000CB68D1E90121206800F09DFA20688168A5
:100CC00041F0770109E0CB68D1E90121206800F00B
:100CD00092FA2068816841F480418160E1E719E07F
:100CE000CA684968206800F03BFB5021206806E094
:100CF000CA684968206800F044FB6021206800F061
:100D000084FACEE7CA684968206800F029FB4021D0
:100D10002068F4E7226801461046F0E700B585B088
:100D20000021009101910291039100680B498842D2
:100D300012D10B48816941F00801816180696946DF
:100D400000F0080004904FF44070009002200190E1
:100D500003900448FFF712FB05B000BD00080040F7
:100D600000100240000C014070B5044690F83C00B1
:100D700000260D4601280FD0012084F83C006AB1FE
:100D8000042A1DD0082A2FD00C2A3FD0012600208B
:100D900084F83C00304670BD022070BD206800F031
:100DA0003DFA2068816941F008018161206881690C
:100DB00021F004018161206881692A69114311E0F1
:100DC000206800F053FA2068816941F40061816174
:100DD0002068816921F480618161206881692A69C4
:100DE00041EA02218161D2E7206800F06BFA2068B5
:100DF000C16941F00801C1612068C16921F00401A5
:100E0000C1612068C1692A69114311E0206800F0BE
:100E100085FA2068C16941F40061C1612068C16937
:100E200021F48061C1612068C1692A6941EA022117
:100E3000C161ACE710B5040003D094F83D0010B1D7
:100E400007E0012010BD002084F83C00204600F09F
:100E50001FF8022084F83D00211D206800F082F96F
:100E6000012084F8460084F83E0084F83F0084F8AE
:100E7000400084F8410084F8420084F8430084F87C
:100E8000440084F8450084F83D00002010BD0000B7
:100E900008B500680649884208D10648C16941F092
:100EA0000401C161C06900F00400009008BD0000A9
:100EB000000800400010024010B50446022249B16B
:100EC00004290ED0082913D094F84100012816D027
:100ED000012010BD94F83E000128F9D184F83E208D
:100EE0000FE094F83F000128F2D184F83F2008E099
:100EF00094F840000128EBD184F8402001E084F808
:100F000041200122206800F069F90F4920688842D9
:100F100003D1426C42F4004242642068884208D007
:100F2000B0F1804F05D00949884202D00849884273
:100F300004D1816801F00701062903D0016841F05E
:100F400001010160002010BD002C014000040040A0
:100F500000080040FEE70000F0B585B000252848F5
:100F60000095019502950395816941F02001816109
:100F7000816901F020010491816941F008018161DA
:100F8000816901F008010491816941F004018161E6
:100F900080691C4F00F00400049001228021384633
:100FA000FFF7DCFA184E4FF22000CDE900060124CD
:100FB000694602943846FFF7E1F92002CDE90006C0
:100FC000694602941148FFF7D9F980208DE8310075
:100FD0000220039069463846FFF7D0F900221146F7
:100FE0001720FFF725FB1720FFF714FB00221146FF
:100FF0002820FFF71DFB2820FFF70CFB05B0F0BDF4
:1010000000100240000C01400000211000080140C7
:1010100010B586B0002417480094019402940394FC
:1010200004941349059401604721C0E901144FF667
:10103000FF71C0E9031480218161FFF7BFFD08B192
:10104000FFF744F94FF48050009069460948FFF7D4
:10105000F7FD08B1FFF73AF9049404A9054805948F
:10106000FFF778FD002801D0FFF730F906B010BD7A
:10107000000400402800002010B58AB00024079426
:101080001C2168460894FFF79FF81A481849C0E9E0
:1010900000146421C0E90241802104618161FFF7ED
:1010A000C9FE08B1FFF712F9079407A9114808947F
:1010B000FFF750FD08B1FFF709F96020CDE9000402
:1010C0000294082269460B480494FFF74DFE08B1CC
:1010D000FFF7FCF80C2269460648FFF745FE08B109
:1010E000FFF7F4F80348FFF719FE0AB010BD00003F
:1010F0000008004070000020FEE7FEE770477047E0
:10110000FFF738BA30B58FB028216846FFF75CF892
:1011100014210AA8FFF758F801210804CDE90010AE
:101120000024029402250491CDE907504FF4E01009
:1011300009906846FFF76AFB08B172B6FEE70F2018
:10114000CDE90A054FF48060CDE90C4002210AA8E0
:101150000E94FFF79FFA002801D072B6FEE70FB099
:1011600030BD7047F0B50268194B1A4C1A4D4FF05C
:101170008047984205D0B84203D0A04201D0A8428F
:1011800003D122F070064A683243984205D0B84233
:1011900003D0A04201D0A84203D122F44074CA680F
:1011A00022434C6922F08002224302608A68C262B4
:1011B0000A688262984201D1096901630121416193
:1011C0000169C90703D0016921F001010161F0BD86
:1011D000002C0140000400400008004010B501F060
:1011E0001F030121046A99408C430462016A9A40FA
:1011F0001143016210BD10B5846842EA032224F451
:101200007F440A432243826010BD826822F070024C
:101210000A4342F0070181607047000030B5036A5D
:10122000026A22F0010202624268846924F07305B6
:101230000C682C4323F002058B682B430A4DA8420F
:101240000BD123F00805CB6822F440722B434D6983
:1012500023F0040315438A692A4342608461496884
:101260004163036230BD0000002C014030B5026ACA
:10127000036A23F010030362436884690D6824F451
:10128000E64444EA05248D6822F0200242EA051271
:101290000B4DA8420ED1CD6822F0800242EA051221
:1012A0004D6923F4406343EA85038D6922F04002CF
:1012B00043EA85034360846149688163026230BD0B
:1012C000002C014030B5036A026A22F48072026287
:1012D0004268C46923F4007324F073050C682C433E
:1012E0008D6843EA05230C4DA8420ED1CD6823F446
:1012F000006343EA05234D6922F4405242EA051295
:101300008D6923F4806342EA05124260C461496832
:10131000C163036230BD0000002C014030B5046A97
:10132000026A22F4805202624268C3690D6823F4A3
:10133000E64343EA05238D6824F4005444EA053467
:10134000064DA84204D14D6922F4804242EA85123A
:101350004260C36149680164046230BD002C0140F1
:1013600010B5036A046A24F001040462846924F05D
:10137000F00444EA021423F00A020A438461026280
:1013800010BD10B5036A046A24F010040462846975
:1013900023F0A00324F4704444EA023243EA01112A
:1013A0008261016210BDFEE70907090E002804DB17
:1013B00000F1E02080F80014704700F00F0000F109
:1013C000E02080F8141D7047FFF7DCF8FFF79AFE65
:1013D000FFF7C2FDFFF71CFEFFF74EFE082107488E
:1013E000FFF76AFD0C210548FFF766FD03486421FD
:1013F0000268D16300680164FEE70000700000200D
:10140000010202030405060708090A0B0C0D0E0F62
:101410001010000000000000000001020304060795
:101420000809000044140008000000202800000003
:10143000280100086C14000828000020F0060000B5
:10144000440100080000000000000000000000004F
:10145000000000000000000000000000010000008B
:0C146000100000000000000000127A00E4
:04000005080000ED02
:00000001FF
